{
  "contractName": "GTokenLockedDepositNft",
  "abi": [
    {
      "inputs": [
        {
          "internalType": "string",
          "name": "name",
          "type": "string"
        },
        {
          "internalType": "string",
          "name": "symbol",
          "type": "string"
        },
        {
          "internalType": "address",
          "name": "_gToken",
          "type": "address"
        },
        {
          "internalType": "contract IGTokenLockedDepositNftDesign",
          "name": "_design",
          "type": "address"
        },
        {
          "internalType": "uint8",
          "name": "_designDecimals",
          "type": "uint8"
        }
      ],
      "stateMutability": "nonpayable",
      "type": "constructor"
    },
    {
      "anonymous": false,
      "inputs": [
        {
          "indexed": true,
          "internalType": "address",
          "name": "owner",
          "type": "address"
        },
        {
          "indexed": true,
          "internalType": "address",
          "name": "approved",
          "type": "address"
        },
        {
          "indexed": true,
          "internalType": "uint256",
          "name": "tokenId",
          "type": "uint256"
        }
      ],
      "name": "Approval",
      "type": "event"
    },
    {
      "anonymous": false,
      "inputs": [
        {
          "indexed": true,
          "internalType": "address",
          "name": "owner",
          "type": "address"
        },
        {
          "indexed": true,
          "internalType": "address",
          "name": "operator",
          "type": "address"
        },
        {
          "indexed": false,
          "internalType": "bool",
          "name": "approved",
          "type": "bool"
        }
      ],
      "name": "ApprovalForAll",
      "type": "event"
    },
    {
      "anonymous": false,
      "inputs": [
        {
          "indexed": false,
          "internalType": "uint8",
          "name": "newValue",
          "type": "uint8"
        }
      ],
      "name": "DesignDecimalsUpdated",
      "type": "event"
    },
    {
      "anonymous": false,
      "inputs": [
        {
          "indexed": false,
          "internalType": "contract IGTokenLockedDepositNftDesign",
          "name": "newValue",
          "type": "address"
        }
      ],
      "name": "DesignUpdated",
      "type": "event"
    },
    {
      "anonymous": false,
      "inputs": [
        {
          "indexed": true,
          "internalType": "address",
          "name": "from",
          "type": "address"
        },
        {
          "indexed": true,
          "internalType": "address",
          "name": "to",
          "type": "address"
        },
        {
          "indexed": true,
          "internalType": "uint256",
          "name": "tokenId",
          "type": "uint256"
        }
      ],
      "name": "Transfer",
      "type": "event"
    },
    {
      "inputs": [
        {
          "internalType": "address",
          "name": "to",
          "type": "address"
        },
        {
          "internalType": "uint256",
          "name": "tokenId",
          "type": "uint256"
        }
      ],
      "name": "approve",
      "outputs": [],
      "stateMutability": "nonpayable",
      "type": "function"
    },
    {
      "inputs": [
        {
          "internalType": "address",
          "name": "owner",
          "type": "address"
        }
      ],
      "name": "balanceOf",
      "outputs": [
        {
          "internalType": "uint256",
          "name": "",
          "type": "uint256"
        }
      ],
      "stateMutability": "view",
      "type": "function"
    },
    {
      "inputs": [],
      "name": "design",
      "outputs": [
        {
          "internalType": "contract IGTokenLockedDepositNftDesign",
          "name": "",
          "type": "address"
        }
      ],
      "stateMutability": "view",
      "type": "function"
    },
    {
      "inputs": [],
      "name": "designDecimals",
      "outputs": [
        {
          "internalType": "uint8",
          "name": "",
          "type": "uint8"
        }
      ],
      "stateMutability": "view",
      "type": "function"
    },
    {
      "inputs": [],
      "name": "gToken",
      "outputs": [
        {
          "internalType": "address",
          "name": "",
          "type": "address"
        }
      ],
      "stateMutability": "view",
      "type": "function"
    },
    {
      "inputs": [
        {
          "internalType": "uint256",
          "name": "tokenId",
          "type": "uint256"
        }
      ],
      "name": "getApproved",
      "outputs": [
        {
          "internalType": "address",
          "name": "",
          "type": "address"
        }
      ],
      "stateMutability": "view",
      "type": "function"
    },
    {
      "inputs": [
        {
          "internalType": "address",
          "name": "owner",
          "type": "address"
        },
        {
          "internalType": "address",
          "name": "operator",
          "type": "address"
        }
      ],
      "name": "isApprovedForAll",
      "outputs": [
        {
          "internalType": "bool",
          "name": "",
          "type": "bool"
        }
      ],
      "stateMutability": "view",
      "type": "function"
    },
    {
      "inputs": [],
      "name": "name",
      "outputs": [
        {
          "internalType": "string",
          "name": "",
          "type": "string"
        }
      ],
      "stateMutability": "view",
      "type": "function"
    },
    {
      "inputs": [
        {
          "internalType": "uint256",
          "name": "tokenId",
          "type": "uint256"
        }
      ],
      "name": "ownerOf",
      "outputs": [
        {
          "internalType": "address",
          "name": "",
          "type": "address"
        }
      ],
      "stateMutability": "view",
      "type": "function"
    },
    {
      "inputs": [
        {
          "internalType": "address",
          "name": "from",
          "type": "address"
        },
        {
          "internalType": "address",
          "name": "to",
          "type": "address"
        },
        {
          "internalType": "uint256",
          "name": "tokenId",
          "type": "uint256"
        }
      ],
      "name": "safeTransferFrom",
      "outputs": [],
      "stateMutability": "nonpayable",
      "type": "function"
    },
    {
      "inputs": [
        {
          "internalType": "address",
          "name": "from",
          "type": "address"
        },
        {
          "internalType": "address",
          "name": "to",
          "type": "address"
        },
        {
          "internalType": "uint256",
          "name": "tokenId",
          "type": "uint256"
        },
        {
          "internalType": "bytes",
          "name": "data",
          "type": "bytes"
        }
      ],
      "name": "safeTransferFrom",
      "outputs": [],
      "stateMutability": "nonpayable",
      "type": "function"
    },
    {
      "inputs": [
        {
          "internalType": "address",
          "name": "operator",
          "type": "address"
        },
        {
          "internalType": "bool",
          "name": "approved",
          "type": "bool"
        }
      ],
      "name": "setApprovalForAll",
      "outputs": [],
      "stateMutability": "nonpayable",
      "type": "function"
    },
    {
      "inputs": [
        {
          "internalType": "bytes4",
          "name": "interfaceId",
          "type": "bytes4"
        }
      ],
      "name": "supportsInterface",
      "outputs": [
        {
          "internalType": "bool",
          "name": "",
          "type": "bool"
        }
      ],
      "stateMutability": "view",
      "type": "function"
    },
    {
      "inputs": [],
      "name": "symbol",
      "outputs": [
        {
          "internalType": "string",
          "name": "",
          "type": "string"
        }
      ],
      "stateMutability": "view",
      "type": "function"
    },
    {
      "inputs": [
        {
          "internalType": "uint256",
          "name": "index",
          "type": "uint256"
        }
      ],
      "name": "tokenByIndex",
      "outputs": [
        {
          "internalType": "uint256",
          "name": "",
          "type": "uint256"
        }
      ],
      "stateMutability": "view",
      "type": "function"
    },
    {
      "inputs": [
        {
          "internalType": "address",
          "name": "owner",
          "type": "address"
        },
        {
          "internalType": "uint256",
          "name": "index",
          "type": "uint256"
        }
      ],
      "name": "tokenOfOwnerByIndex",
      "outputs": [
        {
          "internalType": "uint256",
          "name": "",
          "type": "uint256"
        }
      ],
      "stateMutability": "view",
      "type": "function"
    },
    {
      "inputs": [],
      "name": "totalSupply",
      "outputs": [
        {
          "internalType": "uint256",
          "name": "",
          "type": "uint256"
        }
      ],
      "stateMutability": "view",
      "type": "function"
    },
    {
      "inputs": [
        {
          "internalType": "address",
          "name": "from",
          "type": "address"
        },
        {
          "internalType": "address",
          "name": "to",
          "type": "address"
        },
        {
          "internalType": "uint256",
          "name": "tokenId",
          "type": "uint256"
        }
      ],
      "name": "transferFrom",
      "outputs": [],
      "stateMutability": "nonpayable",
      "type": "function"
    },
    {
      "inputs": [
        {
          "internalType": "contract IGTokenLockedDepositNftDesign",
          "name": "newValue",
          "type": "address"
        }
      ],
      "name": "updateDesign",
      "outputs": [],
      "stateMutability": "nonpayable",
      "type": "function"
    },
    {
      "inputs": [
        {
          "internalType": "uint8",
          "name": "newValue",
          "type": "uint8"
        }
      ],
      "name": "updateDesignDecimals",
      "outputs": [],
      "stateMutability": "nonpayable",
      "type": "function"
    },
    {
      "inputs": [
        {
          "internalType": "address",
          "name": "to",
          "type": "address"
        },
        {
          "internalType": "uint256",
          "name": "tokenId",
          "type": "uint256"
        }
      ],
      "name": "mint",
      "outputs": [],
      "stateMutability": "nonpayable",
      "type": "function"
    },
    {
      "inputs": [
        {
          "internalType": "uint256",
          "name": "tokenId",
          "type": "uint256"
        }
      ],
      "name": "burn",
      "outputs": [],
      "stateMutability": "nonpayable",
      "type": "function"
    },
    {
      "inputs": [
        {
          "internalType": "uint256",
          "name": "tokenId",
          "type": "uint256"
        }
      ],
      "name": "tokenURI",
      "outputs": [
        {
          "internalType": "string",
          "name": "",
          "type": "string"
        }
      ],
      "stateMutability": "view",
      "type": "function"
    }
  ],
  "bytecode": "0x60a06040523480156200001157600080fd5b506040516200240a3803806200240a833981016040819052620000349162000171565b84846000620000448382620002b1565b506001620000538282620002b1565b5050506001600160a01b03928316608052600a805460ff909216600160a01b026001600160a81b03199092169290931691909117179055506200037d9050565b634e487b7160e01b600052604160045260246000fd5b600082601f830112620000bb57600080fd5b81516001600160401b0380821115620000d857620000d862000093565b604051601f8301601f19908116603f0116810190828211818310171562000103576200010362000093565b816040528381526020925086838588010111156200012057600080fd5b600091505b8382101562000144578582018301518183018401529082019062000125565b600093810190920192909252949350505050565b6001600160a01b03811681146200016e57600080fd5b50565b600080600080600060a086880312156200018a57600080fd5b85516001600160401b0380821115620001a257600080fd5b620001b089838a01620000a9565b96506020880151915080821115620001c757600080fd5b50620001d688828901620000a9565b9450506040860151620001e98162000158565b6060870151909350620001fc8162000158565b608087015190925060ff811681146200021457600080fd5b809150509295509295909350565b600181811c908216806200023757607f821691505b6020821081036200025857634e487b7160e01b600052602260045260246000fd5b50919050565b601f821115620002ac57600081815260208120601f850160051c81016020861015620002875750805b601f850160051c820191505b81811015620002a85782815560010162000293565b5050505b505050565b81516001600160401b03811115620002cd57620002cd62000093565b620002e581620002de845462000222565b846200025e565b602080601f8311600181146200031d5760008415620003045750858301515b600019600386901b1c1916600185901b178555620002a8565b600085815260208120601f198616915b828110156200034e578886015182559484019460019091019084016200032d565b50858210156200036d5787850151600019600388901b60f8161c191681555b5050505050600190811b01905550565b608051612039620003d1600039600081816102b70152818161064c015281816106db01528181610837015281816109f201528181610b8a01528181610bf701528181610c7d0152610d6401526120396000f3fe608060405234801561001057600080fd5b506004361061014d5760003560e01c80636352211e116100c357806395d89b411161007c57806395d89b41146102ec5780639c44b4d2146102f4578063a22cb46514610307578063b88d4fde1461031a578063c87b56dd1461032d578063e985e9c51461034057600080fd5b80636352211e146102535780636c8aabb414610266578063701a71de1461027957806370a082311461029f57806376ffb9bd146102b257806393f50206146102d957600080fd5b806323b872dd1161011557806323b872dd146101e15780632f745c59146101f457806340c10f191461020757806342842e0e1461021a57806342966c681461022d5780634f6ccce71461024057600080fd5b806301ffc9a71461015257806306fdde031461017a578063081812fc1461018f578063095ea7b3146101ba57806318160ddd146101cf575b600080fd5b610165610160366004611962565b61037c565b60405190151581526020015b60405180910390f35b6101826103a7565b60405161017191906119d6565b6101a261019d3660046119e9565b610439565b6040516001600160a01b039091168152602001610171565b6101cd6101c8366004611a17565b610460565b005b6008545b604051908152602001610171565b6101cd6101ef366004611a43565b61057a565b6101d3610202366004611a17565b6105ab565b6101cd610215366004611a17565b610641565b6101cd610228366004611a43565b6106b5565b6101cd61023b3660046119e9565b6106d0565b6101d361024e3660046119e9565b610742565b6101a26102613660046119e9565b6107d5565b6101cd610274366004611a93565b610835565b600a5461028d90600160a01b900460ff1681565b60405160ff9091168152602001610171565b6101d36102ad366004611ab0565b61095b565b6101a27f000000000000000000000000000000000000000000000000000000000000000081565b600a546101a2906001600160a01b031681565b6101826109e1565b6101cd610302366004611ab0565b6109f0565b6101cd610315366004611acd565b610b0f565b6101cd610328366004611b7a565b610b1a565b61018261033b3660046119e9565b610b52565b61016561034e366004611c29565b6001600160a01b03918216600090815260056020908152604080832093909416825291909152205460ff1690565b60006001600160e01b0319821663780e9d6360e01b14806103a157506103a182610e5c565b92915050565b6060600080546103b690611c57565b80601f01602080910402602001604051908101604052809291908181526020018280546103e290611c57565b801561042f5780601f106104045761010080835404028352916020019161042f565b820191906000526020600020905b81548152906001019060200180831161041257829003601f168201915b5050505050905090565b600061044482610eac565b506000908152600460205260409020546001600160a01b031690565b600061046b826107d5565b9050806001600160a01b0316836001600160a01b0316036104dd5760405162461bcd60e51b815260206004820152602160248201527f4552433732313a20617070726f76616c20746f2063757272656e74206f776e656044820152603960f91b60648201526084015b60405180910390fd5b336001600160a01b03821614806104f957506104f9813361034e565b61056b5760405162461bcd60e51b815260206004820152603d60248201527f4552433732313a20617070726f76652063616c6c6572206973206e6f7420746f60448201527f6b656e206f776e6572206f7220617070726f76656420666f7220616c6c00000060648201526084016104d4565b6105758383610f0b565b505050565b6105843382610f79565b6105a05760405162461bcd60e51b81526004016104d490611c91565b610575838383610ff8565b60006105b68361095b565b82106106185760405162461bcd60e51b815260206004820152602b60248201527f455243373231456e756d657261626c653a206f776e657220696e646578206f7560448201526a74206f6620626f756e647360a81b60648201526084016104d4565b506001600160a01b03919091166000908152600660209081526040808320938352929052205490565b336001600160a01b037f000000000000000000000000000000000000000000000000000000000000000016146106a75760405162461bcd60e51b815260206004820152600b60248201526a27a7262cafa3aa27a5a2a760a91b60448201526064016104d4565b6106b18282611169565b5050565b61057583838360405180602001604052806000815250610b1a565b336001600160a01b037f000000000000000000000000000000000000000000000000000000000000000016146107365760405162461bcd60e51b815260206004820152600b60248201526a27a7262cafa3aa27a5a2a760a91b60448201526064016104d4565b61073f81611183565b50565b600061074d60085490565b82106107b05760405162461bcd60e51b815260206004820152602c60248201527f455243373231456e756d657261626c653a20676c6f62616c20696e646578206f60448201526b7574206f6620626f756e647360a01b60648201526084016104d4565b600882815481106107c3576107c3611cde565b90600052602060002001549050919050565b6000818152600260205260408120546001600160a01b0316806103a15760405162461bcd60e51b8152602060048201526018602482015277115490cdcc8c4e881a5b9d985b1a59081d1bdad95b88125160421b60448201526064016104d4565b7f00000000000000000000000000000000000000000000000000000000000000006001600160a01b031663481c6a756040518163ffffffff1660e01b8152600401602060405180830381865afa158015610893573d6000803e3d6000fd5b505050506040513d601f19601f820116820180604052508101906108b79190611cf4565b6001600160a01b0316336001600160a01b0316146109065760405162461bcd60e51b815260206004820152600c60248201526b27a7262cafa6a0a720a3a2a960a11b60448201526064016104d4565b600a805460ff60a01b1916600160a01b60ff8416908102919091179091556040519081527f602fad026c51bcd4203318336b0f271603ba04f58124783860753c61a94dc945906020015b60405180910390a150565b60006001600160a01b0382166109c55760405162461bcd60e51b815260206004820152602960248201527f4552433732313a2061646472657373207a65726f206973206e6f7420612076616044820152683634b21037bbb732b960b91b60648201526084016104d4565b506001600160a01b031660009081526003602052604090205490565b6060600180546103b690611c57565b7f00000000000000000000000000000000000000000000000000000000000000006001600160a01b031663481c6a756040518163ffffffff1660e01b8152600401602060405180830381865afa158015610a4e573d6000803e3d6000fd5b505050506040513d601f19601f82011682018060405250810190610a729190611cf4565b6001600160a01b0316336001600160a01b031614610ac15760405162461bcd60e51b815260206004820152600c60248201526b27a7262cafa6a0a720a3a2a960a11b60448201526064016104d4565b600a80546001600160a01b0319166001600160a01b0383169081179091556040519081527f01df2dcc4e8485942a83320fe627e437aba6c78bdadd3051ff80e902ec7d041d90602001610950565b6106b1338383611226565b610b243383610f79565b610b405760405162461bcd60e51b81526004016104d490611c91565b610b4c848484846112f4565b50505050565b6060610b5d82610eac565b600a546040516373c1cb3b60e11b8152600481018490526001600160a01b039182169163750863339185917f0000000000000000000000000000000000000000000000000000000000000000169063e78396769060240160c060405180830381865afa158015610bd1573d6000803e3d6000fd5b505050506040513d601f19601f82011682018060405250810190610bf59190611d11565b7f00000000000000000000000000000000000000000000000000000000000000006001600160a01b03166395d89b416040518163ffffffff1660e01b8152600401600060405180830381865afa158015610c53573d6000803e3d6000fd5b505050506040513d6000823e601f3d908101601f19168201604052610c7b9190810190611d94565b7f00000000000000000000000000000000000000000000000000000000000000006001600160a01b03166338d52e0f6040518163ffffffff1660e01b8152600401602060405180830381865afa158015610cd9573d6000803e3d6000fd5b505050506040513d601f19601f82011682018060405250810190610cfd9190611cf4565b6001600160a01b03166395d89b416040518163ffffffff1660e01b8152600401600060405180830381865afa158015610d3a573d6000803e3d6000fd5b505050506040513d6000823e601f3d908101601f19168201604052610d629190810190611d94565b7f00000000000000000000000000000000000000000000000000000000000000006001600160a01b031663313ce5676040518163ffffffff1660e01b8152600401602060405180830381865afa158015610dc0573d6000803e3d6000fd5b505050506040513d601f19601f82011682018060405250810190610de49190611e0b565b600a5460405160e088901b6001600160e01b0319168152610e17969594939291600160a01b900460ff1690600401611e28565b600060405180830381865afa158015610e34573d6000803e3d6000fd5b505050506040513d6000823e601f3d908101601f191682016040526103a19190810190611d94565b60006001600160e01b031982166380ac58cd60e01b1480610e8d57506001600160e01b03198216635b5e139f60e01b145b806103a157506301ffc9a760e01b6001600160e01b03198316146103a1565b6000818152600260205260409020546001600160a01b031661073f5760405162461bcd60e51b8152602060048201526018602482015277115490cdcc8c4e881a5b9d985b1a59081d1bdad95b88125160421b60448201526064016104d4565b600081815260046020526040902080546001600160a01b0319166001600160a01b0384169081179091558190610f40826107d5565b6001600160a01b03167f8c5be1e5ebec7d5bd14f71427d1e84f3dd0314c0f7b2291e5b200ac8c7c3b92560405160405180910390a45050565b600080610f85836107d5565b9050806001600160a01b0316846001600160a01b03161480610fcc57506001600160a01b0380821660009081526005602090815260408083209388168352929052205460ff165b80610ff05750836001600160a01b0316610fe584610439565b6001600160a01b0316145b949350505050565b826001600160a01b031661100b826107d5565b6001600160a01b0316146110315760405162461bcd60e51b81526004016104d490611ec0565b6001600160a01b0382166110935760405162461bcd60e51b8152602060048201526024808201527f4552433732313a207472616e7366657220746f20746865207a65726f206164646044820152637265737360e01b60648201526084016104d4565b6110a08383836001611327565b826001600160a01b03166110b3826107d5565b6001600160a01b0316146110d95760405162461bcd60e51b81526004016104d490611ec0565b600081815260046020908152604080832080546001600160a01b03199081169091556001600160a01b0387811680865260038552838620805460001901905590871680865283862080546001019055868652600290945282852080549092168417909155905184937fddf252ad1be2c89b69c2b068fc378daa952ba7f163c4a11628f55a4df523b3ef91a4505050565b6106b1828260405180602001604052806000815250611467565b600061118e826107d5565b905061119e816000846001611327565b6111a7826107d5565b600083815260046020908152604080832080546001600160a01b03199081169091556001600160a01b0385168085526003845282852080546000190190558785526002909352818420805490911690555192935084927fddf252ad1be2c89b69c2b068fc378daa952ba7f163c4a11628f55a4df523b3ef908390a45050565b816001600160a01b0316836001600160a01b0316036112875760405162461bcd60e51b815260206004820152601960248201527f4552433732313a20617070726f766520746f2063616c6c65720000000000000060448201526064016104d4565b6001600160a01b03838116600081815260056020908152604080832094871680845294825291829020805460ff191686151590811790915591519182527f17307eab39ab6107e8899845ad3d59bd9653f200f220920489ca2b5937696c31910160405180910390a3505050565b6112ff848484610ff8565b61130b8484848461149a565b610b4c5760405162461bcd60e51b81526004016104d490611f05565b6113338484848461159b565b60018111156113a25760405162461bcd60e51b815260206004820152603560248201527f455243373231456e756d657261626c653a20636f6e7365637574697665207472604482015274185b9cd9995c9cc81b9bdd081cdd5c1c1bdc9d1959605a1b60648201526084016104d4565b816001600160a01b0385166113fe576113f981600880546000838152600960205260408120829055600182018355919091527ff3f7a9fe364faab93b216da50a3214154f22a0a2b415b23a84c8169e8b636ee30155565b611421565b836001600160a01b0316856001600160a01b031614611421576114218582611623565b6001600160a01b03841661143d57611438816116c0565b611460565b846001600160a01b0316846001600160a01b03161461146057611460848261176f565b5050505050565b61147183836117b3565b61147e600084848461149a565b6105755760405162461bcd60e51b81526004016104d490611f05565b60006001600160a01b0384163b1561159057604051630a85bd0160e11b81526001600160a01b0385169063150b7a02906114de903390899088908890600401611f57565b6020604051808303816000875af1925050508015611519575060408051601f3d908101601f1916820190925261151691810190611f94565b60015b611576573d808015611547576040519150601f19603f3d011682016040523d82523d6000602084013e61154c565b606091505b50805160000361156e5760405162461bcd60e51b81526004016104d490611f05565b805181602001fd5b6001600160e01b031916630a85bd0160e11b149050610ff0565b506001949350505050565b6001811115610b4c576001600160a01b038416156115e1576001600160a01b038416600090815260036020526040812080548392906115db908490611fc7565b90915550505b6001600160a01b03831615610b4c576001600160a01b03831660009081526003602052604081208054839290611618908490611fda565b909155505050505050565b600060016116308461095b565b61163a9190611fc7565b60008381526007602052604090205490915080821461168d576001600160a01b03841660009081526006602090815260408083208584528252808320548484528184208190558352600790915290208190555b5060009182526007602090815260408084208490556001600160a01b039094168352600681528383209183525290812055565b6008546000906116d290600190611fc7565b600083815260096020526040812054600880549394509092849081106116fa576116fa611cde565b90600052602060002001549050806008838154811061171b5761171b611cde565b600091825260208083209091019290925582815260099091526040808220849055858252812055600880548061175357611753611fed565b6001900381819060005260206000200160009055905550505050565b600061177a8361095b565b6001600160a01b039093166000908152600660209081526040808320868452825280832085905593825260079052919091209190915550565b6001600160a01b0382166118095760405162461bcd60e51b815260206004820181905260248201527f4552433732313a206d696e7420746f20746865207a65726f206164647265737360448201526064016104d4565b6000818152600260205260409020546001600160a01b03161561186e5760405162461bcd60e51b815260206004820152601c60248201527f4552433732313a20746f6b656e20616c7265616479206d696e7465640000000060448201526064016104d4565b61187c600083836001611327565b6000818152600260205260409020546001600160a01b0316156118e15760405162461bcd60e51b815260206004820152601c60248201527f4552433732313a20746f6b656e20616c7265616479206d696e7465640000000060448201526064016104d4565b6001600160a01b038216600081815260036020908152604080832080546001019055848352600290915280822080546001600160a01b0319168417905551839291907fddf252ad1be2c89b69c2b068fc378daa952ba7f163c4a11628f55a4df523b3ef908290a45050565b6001600160e01b03198116811461073f57600080fd5b60006020828403121561197457600080fd5b813561197f8161194c565b9392505050565b60005b838110156119a1578181015183820152602001611989565b50506000910152565b600081518084526119c2816020860160208601611986565b601f01601f19169290920160200192915050565b60208152600061197f60208301846119aa565b6000602082840312156119fb57600080fd5b5035919050565b6001600160a01b038116811461073f57600080fd5b60008060408385031215611a2a57600080fd5b8235611a3581611a02565b946020939093013593505050565b600080600060608486031215611a5857600080fd5b8335611a6381611a02565b92506020840135611a7381611a02565b929592945050506040919091013590565b60ff8116811461073f57600080fd5b600060208284031215611aa557600080fd5b813561197f81611a84565b600060208284031215611ac257600080fd5b813561197f81611a02565b60008060408385031215611ae057600080fd5b8235611aeb81611a02565b915060208301358015158114611b0057600080fd5b809150509250929050565b634e487b7160e01b600052604160045260246000fd5b604051601f8201601f1916810167ffffffffffffffff81118282101715611b4a57611b4a611b0b565b604052919050565b600067ffffffffffffffff821115611b6c57611b6c611b0b565b50601f01601f191660200190565b60008060008060808587031215611b9057600080fd5b8435611b9b81611a02565b93506020850135611bab81611a02565b925060408501359150606085013567ffffffffffffffff811115611bce57600080fd5b8501601f81018713611bdf57600080fd5b8035611bf2611bed82611b52565b611b21565b818152886020838501011115611c0757600080fd5b8160208401602083013760006020838301015280935050505092959194509250565b60008060408385031215611c3c57600080fd5b8235611c4781611a02565b91506020830135611b0081611a02565b600181811c90821680611c6b57607f821691505b602082108103611c8b57634e487b7160e01b600052602260045260246000fd5b50919050565b6020808252602d908201527f4552433732313a2063616c6c6572206973206e6f7420746f6b656e206f776e6560408201526c1c881bdc88185c1c1c9bdd9959609a1b606082015260800190565b634e487b7160e01b600052603260045260246000fd5b600060208284031215611d0657600080fd5b815161197f81611a02565b600060c08284031215611d2357600080fd5b60405160c0810181811067ffffffffffffffff82111715611d4657611d46611b0b565b6040528251611d5481611a02565b808252506020830151602082015260408301516040820152606083015160608201526080830151608082015260a083015160a08201528091505092915050565b600060208284031215611da657600080fd5b815167ffffffffffffffff811115611dbd57600080fd5b8201601f81018413611dce57600080fd5b8051611ddc611bed82611b52565b818152856020838501011115611df157600080fd5b611e02826020830160208601611986565b95945050505050565b600060208284031215611e1d57600080fd5b815161197f81611a84565b600061016088835260018060a01b038851166020840152602088015160408401526040880151606084015260608801516080840152608088015160a084015260a088015160c08401528060e0840152611e83818401886119aa565b9050828103610100840152611e9881876119aa565b915050611eab61012083018560ff169052565b60ff8316610140830152979650505050505050565b60208082526025908201527f4552433732313a207472616e736665722066726f6d20696e636f72726563742060408201526437bbb732b960d91b606082015260800190565b60208082526032908201527f4552433732313a207472616e7366657220746f206e6f6e20455243373231526560408201527131b2b4bb32b91034b6b83632b6b2b73a32b960711b606082015260800190565b6001600160a01b0385811682528416602082015260408101839052608060608201819052600090611f8a908301846119aa565b9695505050505050565b600060208284031215611fa657600080fd5b815161197f8161194c565b634e487b7160e01b600052601160045260246000fd5b818103818111156103a1576103a1611fb1565b808201808211156103a1576103a1611fb1565b634e487b7160e01b600052603160045260246000fdfea2646970667358221220de31540689ae26e0acc7cf2deccc8bdbe42fc608fb23838c996c3d58b2c3bfe164736f6c63430008110033",
  "immutableReferences": {
    "51672": [
      {
        "length": 32,
        "start": 695
      },
      {
        "length": 32,
        "start": 1612
      },
      {
        "length": 32,
        "start": 1755
      },
      {
        "length": 32,
        "start": 2103
      },
      {
        "length": 32,
        "start": 2546
      },
      {
        "length": 32,
        "start": 2954
      },
      {
        "length": 32,
        "start": 3063
      },
      {
        "length": 32,
        "start": 3197
      },
      {
        "length": 32,
        "start": 3428
      }
    ]
  },
  "source": "// SPDX-License-Identifier: MIT\nimport '@openzeppelin/contracts/token/ERC721/extensions/ERC721Enumerable.sol';\nimport '@openzeppelin/contracts/interfaces/IERC20Metadata.sol';\nimport '@openzeppelin/contracts/interfaces/IERC4626.sol';\n\nimport '../interfaces/IGTokenLockedDepositNftDesign.sol';\n\npragma solidity 0.8.17;\n\ncontract GTokenLockedDepositNft is ERC721Enumerable{\n    address public immutable gToken;\n    IGTokenLockedDepositNftDesign public design;\n\n    uint8 public designDecimals;\n\n    event DesignUpdated(IGTokenLockedDepositNftDesign newValue);\n    event DesignDecimalsUpdated(uint8 newValue);\n\n    constructor(\n        string memory name,\n        string memory symbol,\n        address _gToken,\n        IGTokenLockedDepositNftDesign _design,\n        uint8 _designDecimals\n    ) ERC721(name, symbol){\n        gToken = _gToken;\n        design = _design;\n        designDecimals = _designDecimals;\n    }\n\n    modifier onlyGToken{\n        require(msg.sender == gToken, \"ONLY_GTOKEN\");\n        _;\n    }\n\n    modifier onlyGTokenManager{\n        require(msg.sender == IGToken(gToken).manager(), \"ONLY_MANAGER\");\n        _;\n    }\n\n    function updateDesign(IGTokenLockedDepositNftDesign newValue) external onlyGTokenManager{\n        design = newValue;\n        emit DesignUpdated(newValue);\n    }\n\n    function updateDesignDecimals(uint8 newValue) external onlyGTokenManager{\n        designDecimals = newValue;\n        emit DesignDecimalsUpdated(newValue);\n    }\n\n    function mint(address to, uint tokenId) external onlyGToken{\n        _safeMint(to, tokenId);\n    }\n\n    function burn(uint tokenId) external onlyGToken{\n        _burn(tokenId);\n    }\n\n    function tokenURI(uint tokenId) public view override returns (string memory) {\n        _requireMinted(tokenId);\n\n        return design.buildTokenURI(\n            tokenId,\n            IGToken(gToken).getLockedDeposit(tokenId),\n            IERC20Metadata(gToken).symbol(),\n            IERC20Metadata(IERC4626(gToken).asset()).symbol(),\n            IERC20Metadata(gToken).decimals(),\n            designDecimals\n        );\n    }\n}",
  "sourcePath": "/Users/ntonani/workplace/trinzy/gains/arbitrum-v6.3/contracts/v6.3/GTokenLockedDepositNft.sol",
  "compiler": {
    "name": "solc",
    "version": "0.8.17+commit.8df45f5f.Emscripten.clang"
  },
  "schemaVersion": "3.4.11",
  "updatedAt": "2023-01-02T17:31:31.021Z",
  "devdoc": {
    "kind": "dev",
    "methods": {
      "approve(address,uint256)": {
        "details": "See {IERC721-approve}."
      },
      "balanceOf(address)": {
        "details": "See {IERC721-balanceOf}."
      },
      "getApproved(uint256)": {
        "details": "See {IERC721-getApproved}."
      },
      "isApprovedForAll(address,address)": {
        "details": "See {IERC721-isApprovedForAll}."
      },
      "name()": {
        "details": "See {IERC721Metadata-name}."
      },
      "ownerOf(uint256)": {
        "details": "See {IERC721-ownerOf}."
      },
      "safeTransferFrom(address,address,uint256)": {
        "details": "See {IERC721-safeTransferFrom}."
      },
      "safeTransferFrom(address,address,uint256,bytes)": {
        "details": "See {IERC721-safeTransferFrom}."
      },
      "setApprovalForAll(address,bool)": {
        "details": "See {IERC721-setApprovalForAll}."
      },
      "supportsInterface(bytes4)": {
        "details": "See {IERC165-supportsInterface}."
      },
      "symbol()": {
        "details": "See {IERC721Metadata-symbol}."
      },
      "tokenByIndex(uint256)": {
        "details": "See {IERC721Enumerable-tokenByIndex}."
      },
      "tokenOfOwnerByIndex(address,uint256)": {
        "details": "See {IERC721Enumerable-tokenOfOwnerByIndex}."
      },
      "tokenURI(uint256)": {
        "details": "See {IERC721Metadata-tokenURI}."
      },
      "totalSupply()": {
        "details": "See {IERC721Enumerable-totalSupply}."
      },
      "transferFrom(address,address,uint256)": {
        "details": "See {IERC721-transferFrom}."
      }
    },
    "version": 1
  },
  "userdoc": {
    "kind": "user",
    "methods": {},
    "version": 1
  }
}