{
  "contractName": "GToken",
  "abi": [
    {
      "anonymous": false,
      "inputs": [
        {
          "indexed": true,
          "internalType": "address",
          "name": "sender",
          "type": "address"
        },
        {
          "indexed": true,
          "internalType": "uint256",
          "name": "newEpoch",
          "type": "uint256"
        },
        {
          "indexed": false,
          "internalType": "uint256",
          "name": "prevPositiveOpenPnl",
          "type": "uint256"
        },
        {
          "indexed": false,
          "internalType": "uint256",
          "name": "newPositiveOpenPnl",
          "type": "uint256"
        },
        {
          "indexed": false,
          "internalType": "uint256",
          "name": "newEpochPositiveOpenPnl",
          "type": "uint256"
        },
        {
          "indexed": false,
          "internalType": "int256",
          "name": "newAccPnlPerTokenUsed",
          "type": "int256"
        }
      ],
      "name": "AccPnlPerTokenUsedUpdated",
      "type": "event"
    },
    {
      "anonymous": false,
      "inputs": [
        {
          "indexed": false,
          "internalType": "string",
          "name": "name",
          "type": "string"
        },
        {
          "indexed": false,
          "internalType": "address",
          "name": "newValue",
          "type": "address"
        }
      ],
      "name": "AddressParamUpdated",
      "type": "event"
    },
    {
      "anonymous": false,
      "inputs": [
        {
          "indexed": true,
          "internalType": "address",
          "name": "owner",
          "type": "address"
        },
        {
          "indexed": true,
          "internalType": "address",
          "name": "spender",
          "type": "address"
        },
        {
          "indexed": false,
          "internalType": "uint256",
          "name": "value",
          "type": "uint256"
        }
      ],
      "name": "Approval",
      "type": "event"
    },
    {
      "anonymous": false,
      "inputs": [
        {
          "indexed": true,
          "internalType": "address",
          "name": "sender",
          "type": "address"
        },
        {
          "indexed": true,
          "internalType": "address",
          "name": "user",
          "type": "address"
        },
        {
          "indexed": false,
          "internalType": "uint256",
          "name": "assets",
          "type": "uint256"
        },
        {
          "indexed": false,
          "internalType": "uint256",
          "name": "assetsLessDeplete",
          "type": "uint256"
        }
      ],
      "name": "AssetsReceived",
      "type": "event"
    },
    {
      "anonymous": false,
      "inputs": [
        {
          "indexed": true,
          "internalType": "address",
          "name": "sender",
          "type": "address"
        },
        {
          "indexed": true,
          "internalType": "address",
          "name": "receiver",
          "type": "address"
        },
        {
          "indexed": false,
          "internalType": "uint256",
          "name": "assets",
          "type": "uint256"
        }
      ],
      "name": "AssetsSent",
      "type": "event"
    },
    {
      "anonymous": false,
      "inputs": [
        {
          "indexed": false,
          "internalType": "uint256",
          "name": "newValue",
          "type": "uint256"
        }
      ],
      "name": "CurrentMaxSupplyUpdated",
      "type": "event"
    },
    {
      "anonymous": false,
      "inputs": [],
      "name": "DailyAccPnlDeltaReset",
      "type": "event"
    },
    {
      "anonymous": false,
      "inputs": [
        {
          "indexed": true,
          "internalType": "address",
          "name": "sender",
          "type": "address"
        },
        {
          "indexed": false,
          "internalType": "uint256",
          "name": "assets",
          "type": "uint256"
        },
        {
          "indexed": false,
          "internalType": "uint256",
          "name": "amountGns",
          "type": "uint256"
        }
      ],
      "name": "Depleted",
      "type": "event"
    },
    {
      "anonymous": false,
      "inputs": [
        {
          "indexed": true,
          "internalType": "address",
          "name": "sender",
          "type": "address"
        },
        {
          "indexed": true,
          "internalType": "address",
          "name": "owner",
          "type": "address"
        },
        {
          "indexed": false,
          "internalType": "uint256",
          "name": "assets",
          "type": "uint256"
        },
        {
          "indexed": false,
          "internalType": "uint256",
          "name": "shares",
          "type": "uint256"
        }
      ],
      "name": "Deposit",
      "type": "event"
    },
    {
      "anonymous": false,
      "inputs": [
        {
          "indexed": true,
          "internalType": "address",
          "name": "sender",
          "type": "address"
        },
        {
          "indexed": true,
          "internalType": "address",
          "name": "owner",
          "type": "address"
        },
        {
          "indexed": false,
          "internalType": "uint256",
          "name": "depositId",
          "type": "uint256"
        },
        {
          "components": [
            {
              "internalType": "address",
              "name": "owner",
              "type": "address"
            },
            {
              "internalType": "uint256",
              "name": "shares",
              "type": "uint256"
            },
            {
              "internalType": "uint256",
              "name": "assetsDeposited",
              "type": "uint256"
            },
            {
              "internalType": "uint256",
              "name": "assetsDiscount",
              "type": "uint256"
            },
            {
              "internalType": "uint256",
              "name": "atTimestamp",
              "type": "uint256"
            },
            {
              "internalType": "uint256",
              "name": "lockDuration",
              "type": "uint256"
            }
          ],
          "indexed": false,
          "internalType": "struct IGToken.LockedDeposit",
          "name": "d",
          "type": "tuple"
        }
      ],
      "name": "DepositLocked",
      "type": "event"
    },
    {
      "anonymous": false,
      "inputs": [
        {
          "indexed": true,
          "internalType": "address",
          "name": "sender",
          "type": "address"
        },
        {
          "indexed": true,
          "internalType": "address",
          "name": "receiver",
          "type": "address"
        },
        {
          "indexed": true,
          "internalType": "address",
          "name": "owner",
          "type": "address"
        },
        {
          "indexed": false,
          "internalType": "uint256",
          "name": "depositId",
          "type": "uint256"
        },
        {
          "components": [
            {
              "internalType": "address",
              "name": "owner",
              "type": "address"
            },
            {
              "internalType": "uint256",
              "name": "shares",
              "type": "uint256"
            },
            {
              "internalType": "uint256",
              "name": "assetsDeposited",
              "type": "uint256"
            },
            {
              "internalType": "uint256",
              "name": "assetsDiscount",
              "type": "uint256"
            },
            {
              "internalType": "uint256",
              "name": "atTimestamp",
              "type": "uint256"
            },
            {
              "internalType": "uint256",
              "name": "lockDuration",
              "type": "uint256"
            }
          ],
          "indexed": false,
          "internalType": "struct IGToken.LockedDeposit",
          "name": "d",
          "type": "tuple"
        }
      ],
      "name": "DepositUnlocked",
      "type": "event"
    },
    {
      "anonymous": false,
      "inputs": [
        {
          "components": [
            {
              "internalType": "address",
              "name": "addr",
              "type": "address"
            },
            {
              "internalType": "bytes",
              "name": "signature",
              "type": "bytes"
            }
          ],
          "indexed": false,
          "internalType": "struct GToken.GnsPriceProvider",
          "name": "newValue",
          "type": "tuple"
        }
      ],
      "name": "GnsPriceProviderUpdated",
      "type": "event"
    },
    {
      "anonymous": false,
      "inputs": [
        {
          "indexed": false,
          "internalType": "uint8",
          "name": "version",
          "type": "uint8"
        }
      ],
      "name": "Initialized",
      "type": "event"
    },
    {
      "anonymous": false,
      "inputs": [
        {
          "indexed": false,
          "internalType": "string",
          "name": "name",
          "type": "string"
        },
        {
          "indexed": false,
          "internalType": "uint256",
          "name": "newValue",
          "type": "uint256"
        }
      ],
      "name": "NumberParamUpdated",
      "type": "event"
    },
    {
      "anonymous": false,
      "inputs": [],
      "name": "OpenTradesPnlFeedCallFailed",
      "type": "event"
    },
    {
      "anonymous": false,
      "inputs": [
        {
          "indexed": true,
          "internalType": "address",
          "name": "previousOwner",
          "type": "address"
        },
        {
          "indexed": true,
          "internalType": "address",
          "name": "newOwner",
          "type": "address"
        }
      ],
      "name": "OwnershipTransferred",
      "type": "event"
    },
    {
      "anonymous": false,
      "inputs": [
        {
          "indexed": true,
          "internalType": "address",
          "name": "sender",
          "type": "address"
        },
        {
          "indexed": false,
          "internalType": "uint256",
          "name": "assets",
          "type": "uint256"
        },
        {
          "indexed": false,
          "internalType": "uint256",
          "name": "amountGns",
          "type": "uint256"
        }
      ],
      "name": "Refilled",
      "type": "event"
    },
    {
      "anonymous": false,
      "inputs": [
        {
          "indexed": true,
          "internalType": "address",
          "name": "sender",
          "type": "address"
        },
        {
          "indexed": false,
          "internalType": "uint256",
          "name": "assets",
          "type": "uint256"
        }
      ],
      "name": "RewardDistributed",
      "type": "event"
    },
    {
      "anonymous": false,
      "inputs": [
        {
          "indexed": false,
          "internalType": "uint256",
          "name": "newValue",
          "type": "uint256"
        }
      ],
      "name": "ShareToAssetsPriceUpdated",
      "type": "event"
    },
    {
      "anonymous": false,
      "inputs": [
        {
          "indexed": true,
          "internalType": "address",
          "name": "from",
          "type": "address"
        },
        {
          "indexed": true,
          "internalType": "address",
          "name": "to",
          "type": "address"
        },
        {
          "indexed": false,
          "internalType": "uint256",
          "name": "value",
          "type": "uint256"
        }
      ],
      "name": "Transfer",
      "type": "event"
    },
    {
      "anonymous": false,
      "inputs": [
        {
          "indexed": true,
          "internalType": "address",
          "name": "sender",
          "type": "address"
        },
        {
          "indexed": true,
          "internalType": "address",
          "name": "receiver",
          "type": "address"
        },
        {
          "indexed": true,
          "internalType": "address",
          "name": "owner",
          "type": "address"
        },
        {
          "indexed": false,
          "internalType": "uint256",
          "name": "assets",
          "type": "uint256"
        },
        {
          "indexed": false,
          "internalType": "uint256",
          "name": "shares",
          "type": "uint256"
        }
      ],
      "name": "Withdraw",
      "type": "event"
    },
    {
      "anonymous": false,
      "inputs": [
        {
          "indexed": true,
          "internalType": "address",
          "name": "sender",
          "type": "address"
        },
        {
          "indexed": true,
          "internalType": "address",
          "name": "owner",
          "type": "address"
        },
        {
          "indexed": false,
          "internalType": "uint256",
          "name": "shares",
          "type": "uint256"
        },
        {
          "indexed": false,
          "internalType": "uint256",
          "name": "currEpoch",
          "type": "uint256"
        },
        {
          "indexed": true,
          "internalType": "uint256",
          "name": "unlockEpoch",
          "type": "uint256"
        }
      ],
      "name": "WithdrawCanceled",
      "type": "event"
    },
    {
      "anonymous": false,
      "inputs": [
        {
          "indexed": false,
          "internalType": "uint256[2]",
          "name": "newValue",
          "type": "uint256[2]"
        }
      ],
      "name": "WithdrawLockThresholdsPUpdated",
      "type": "event"
    },
    {
      "anonymous": false,
      "inputs": [
        {
          "indexed": true,
          "internalType": "address",
          "name": "sender",
          "type": "address"
        },
        {
          "indexed": true,
          "internalType": "address",
          "name": "owner",
          "type": "address"
        },
        {
          "indexed": false,
          "internalType": "uint256",
          "name": "shares",
          "type": "uint256"
        },
        {
          "indexed": false,
          "internalType": "uint256",
          "name": "currEpoch",
          "type": "uint256"
        },
        {
          "indexed": true,
          "internalType": "uint256",
          "name": "unlockEpoch",
          "type": "uint256"
        }
      ],
      "name": "WithdrawRequested",
      "type": "event"
    },
    {
      "inputs": [],
      "name": "MIN_LOCK_DURATION",
      "outputs": [
        {
          "internalType": "uint256",
          "name": "",
          "type": "uint256"
        }
      ],
      "stateMutability": "view",
      "type": "function"
    },
    {
      "inputs": [],
      "name": "accPnlPerToken",
      "outputs": [
        {
          "internalType": "int256",
          "name": "",
          "type": "int256"
        }
      ],
      "stateMutability": "view",
      "type": "function"
    },
    {
      "inputs": [],
      "name": "accPnlPerTokenUsed",
      "outputs": [
        {
          "internalType": "int256",
          "name": "",
          "type": "int256"
        }
      ],
      "stateMutability": "view",
      "type": "function"
    },
    {
      "inputs": [],
      "name": "accRewardsPerToken",
      "outputs": [
        {
          "internalType": "uint256",
          "name": "",
          "type": "uint256"
        }
      ],
      "stateMutability": "view",
      "type": "function"
    },
    {
      "inputs": [],
      "name": "admin",
      "outputs": [
        {
          "internalType": "address",
          "name": "",
          "type": "address"
        }
      ],
      "stateMutability": "view",
      "type": "function"
    },
    {
      "inputs": [
        {
          "internalType": "address",
          "name": "owner",
          "type": "address"
        },
        {
          "internalType": "address",
          "name": "spender",
          "type": "address"
        }
      ],
      "name": "allowance",
      "outputs": [
        {
          "internalType": "uint256",
          "name": "",
          "type": "uint256"
        }
      ],
      "stateMutability": "view",
      "type": "function"
    },
    {
      "inputs": [
        {
          "internalType": "address",
          "name": "spender",
          "type": "address"
        },
        {
          "internalType": "uint256",
          "name": "amount",
          "type": "uint256"
        }
      ],
      "name": "approve",
      "outputs": [
        {
          "internalType": "bool",
          "name": "",
          "type": "bool"
        }
      ],
      "stateMutability": "nonpayable",
      "type": "function"
    },
    {
      "inputs": [],
      "name": "asset",
      "outputs": [
        {
          "internalType": "address",
          "name": "",
          "type": "address"
        }
      ],
      "stateMutability": "view",
      "type": "function"
    },
    {
      "inputs": [],
      "name": "assetsToDeplete",
      "outputs": [
        {
          "internalType": "uint256",
          "name": "",
          "type": "uint256"
        }
      ],
      "stateMutability": "view",
      "type": "function"
    },
    {
      "inputs": [
        {
          "internalType": "address",
          "name": "account",
          "type": "address"
        }
      ],
      "name": "balanceOf",
      "outputs": [
        {
          "internalType": "uint256",
          "name": "",
          "type": "uint256"
        }
      ],
      "stateMutability": "view",
      "type": "function"
    },
    {
      "inputs": [
        {
          "internalType": "uint256",
          "name": "shares",
          "type": "uint256"
        }
      ],
      "name": "convertToAssets",
      "outputs": [
        {
          "internalType": "uint256",
          "name": "assets",
          "type": "uint256"
        }
      ],
      "stateMutability": "view",
      "type": "function"
    },
    {
      "inputs": [
        {
          "internalType": "uint256",
          "name": "assets",
          "type": "uint256"
        }
      ],
      "name": "convertToShares",
      "outputs": [
        {
          "internalType": "uint256",
          "name": "shares",
          "type": "uint256"
        }
      ],
      "stateMutability": "view",
      "type": "function"
    },
    {
      "inputs": [],
      "name": "currentEpoch",
      "outputs": [
        {
          "internalType": "uint256",
          "name": "",
          "type": "uint256"
        }
      ],
      "stateMutability": "view",
      "type": "function"
    },
    {
      "inputs": [],
      "name": "currentEpochPositiveOpenPnl",
      "outputs": [
        {
          "internalType": "uint256",
          "name": "",
          "type": "uint256"
        }
      ],
      "stateMutability": "view",
      "type": "function"
    },
    {
      "inputs": [],
      "name": "currentEpochStart",
      "outputs": [
        {
          "internalType": "uint256",
          "name": "",
          "type": "uint256"
        }
      ],
      "stateMutability": "view",
      "type": "function"
    },
    {
      "inputs": [],
      "name": "currentMaxSupply",
      "outputs": [
        {
          "internalType": "uint256",
          "name": "",
          "type": "uint256"
        }
      ],
      "stateMutability": "view",
      "type": "function"
    },
    {
      "inputs": [],
      "name": "dailyAccPnlDelta",
      "outputs": [
        {
          "internalType": "int256",
          "name": "",
          "type": "int256"
        }
      ],
      "stateMutability": "view",
      "type": "function"
    },
    {
      "inputs": [],
      "name": "dailyMintedGns",
      "outputs": [
        {
          "internalType": "uint256",
          "name": "",
          "type": "uint256"
        }
      ],
      "stateMutability": "view",
      "type": "function"
    },
    {
      "inputs": [
        {
          "internalType": "address",
          "name": "spender",
          "type": "address"
        },
        {
          "internalType": "uint256",
          "name": "subtractedValue",
          "type": "uint256"
        }
      ],
      "name": "decreaseAllowance",
      "outputs": [
        {
          "internalType": "bool",
          "name": "",
          "type": "bool"
        }
      ],
      "stateMutability": "nonpayable",
      "type": "function"
    },
    {
      "inputs": [],
      "name": "gnsPriceProvider",
      "outputs": [
        {
          "internalType": "address",
          "name": "addr",
          "type": "address"
        },
        {
          "internalType": "bytes",
          "name": "signature",
          "type": "bytes"
        }
      ],
      "stateMutability": "view",
      "type": "function"
    },
    {
      "inputs": [],
      "name": "gnsToken",
      "outputs": [
        {
          "internalType": "address",
          "name": "",
          "type": "address"
        }
      ],
      "stateMutability": "view",
      "type": "function"
    },
    {
      "inputs": [
        {
          "internalType": "address",
          "name": "spender",
          "type": "address"
        },
        {
          "internalType": "uint256",
          "name": "addedValue",
          "type": "uint256"
        }
      ],
      "name": "increaseAllowance",
      "outputs": [
        {
          "internalType": "bool",
          "name": "",
          "type": "bool"
        }
      ],
      "stateMutability": "nonpayable",
      "type": "function"
    },
    {
      "inputs": [],
      "name": "lastDailyAccPnlDeltaReset",
      "outputs": [
        {
          "internalType": "uint256",
          "name": "",
          "type": "uint256"
        }
      ],
      "stateMutability": "view",
      "type": "function"
    },
    {
      "inputs": [],
      "name": "lastDailyMintedGnsReset",
      "outputs": [
        {
          "internalType": "uint256",
          "name": "",
          "type": "uint256"
        }
      ],
      "stateMutability": "view",
      "type": "function"
    },
    {
      "inputs": [],
      "name": "lastMaxSupplyUpdate",
      "outputs": [
        {
          "internalType": "uint256",
          "name": "",
          "type": "uint256"
        }
      ],
      "stateMutability": "view",
      "type": "function"
    },
    {
      "inputs": [],
      "name": "lockedDepositNft",
      "outputs": [
        {
          "internalType": "contract INft",
          "name": "",
          "type": "address"
        }
      ],
      "stateMutability": "view",
      "type": "function"
    },
    {
      "inputs": [
        {
          "internalType": "uint256",
          "name": "",
          "type": "uint256"
        }
      ],
      "name": "lockedDeposits",
      "outputs": [
        {
          "internalType": "address",
          "name": "owner",
          "type": "address"
        },
        {
          "internalType": "uint256",
          "name": "shares",
          "type": "uint256"
        },
        {
          "internalType": "uint256",
          "name": "assetsDeposited",
          "type": "uint256"
        },
        {
          "internalType": "uint256",
          "name": "assetsDiscount",
          "type": "uint256"
        },
        {
          "internalType": "uint256",
          "name": "atTimestamp",
          "type": "uint256"
        },
        {
          "internalType": "uint256",
          "name": "lockDuration",
          "type": "uint256"
        }
      ],
      "stateMutability": "view",
      "type": "function"
    },
    {
      "inputs": [],
      "name": "lockedDepositsCount",
      "outputs": [
        {
          "internalType": "uint256",
          "name": "",
          "type": "uint256"
        }
      ],
      "stateMutability": "view",
      "type": "function"
    },
    {
      "inputs": [],
      "name": "lossesBurnP",
      "outputs": [
        {
          "internalType": "uint256",
          "name": "",
          "type": "uint256"
        }
      ],
      "stateMutability": "view",
      "type": "function"
    },
    {
      "inputs": [],
      "name": "manager",
      "outputs": [
        {
          "internalType": "address",
          "name": "",
          "type": "address"
        }
      ],
      "stateMutability": "view",
      "type": "function"
    },
    {
      "inputs": [],
      "name": "maxAccOpenPnlDelta",
      "outputs": [
        {
          "internalType": "uint256",
          "name": "",
          "type": "uint256"
        }
      ],
      "stateMutability": "view",
      "type": "function"
    },
    {
      "inputs": [],
      "name": "maxDailyAccPnlDelta",
      "outputs": [
        {
          "internalType": "uint256",
          "name": "",
          "type": "uint256"
        }
      ],
      "stateMutability": "view",
      "type": "function"
    },
    {
      "inputs": [],
      "name": "maxDiscountP",
      "outputs": [
        {
          "internalType": "uint256",
          "name": "",
          "type": "uint256"
        }
      ],
      "stateMutability": "view",
      "type": "function"
    },
    {
      "inputs": [],
      "name": "maxDiscountThresholdP",
      "outputs": [
        {
          "internalType": "uint256",
          "name": "",
          "type": "uint256"
        }
      ],
      "stateMutability": "view",
      "type": "function"
    },
    {
      "inputs": [],
      "name": "maxGnsSupplyMintDailyP",
      "outputs": [
        {
          "internalType": "uint256",
          "name": "",
          "type": "uint256"
        }
      ],
      "stateMutability": "view",
      "type": "function"
    },
    {
      "inputs": [],
      "name": "maxSupplyIncreaseDailyP",
      "outputs": [
        {
          "internalType": "uint256",
          "name": "",
          "type": "uint256"
        }
      ],
      "stateMutability": "view",
      "type": "function"
    },
    {
      "inputs": [],
      "name": "name",
      "outputs": [
        {
          "internalType": "string",
          "name": "",
          "type": "string"
        }
      ],
      "stateMutability": "view",
      "type": "function"
    },
    {
      "inputs": [],
      "name": "openTradesPnlFeed",
      "outputs": [
        {
          "internalType": "contract IOpenTradesPnlFeed",
          "name": "",
          "type": "address"
        }
      ],
      "stateMutability": "view",
      "type": "function"
    },
    {
      "inputs": [],
      "name": "owner",
      "outputs": [
        {
          "internalType": "address",
          "name": "",
          "type": "address"
        }
      ],
      "stateMutability": "view",
      "type": "function"
    },
    {
      "inputs": [],
      "name": "pnlHandler",
      "outputs": [
        {
          "internalType": "address",
          "name": "",
          "type": "address"
        }
      ],
      "stateMutability": "view",
      "type": "function"
    },
    {
      "inputs": [
        {
          "internalType": "uint256",
          "name": "assets",
          "type": "uint256"
        }
      ],
      "name": "previewDeposit",
      "outputs": [
        {
          "internalType": "uint256",
          "name": "",
          "type": "uint256"
        }
      ],
      "stateMutability": "view",
      "type": "function"
    },
    {
      "inputs": [
        {
          "internalType": "uint256",
          "name": "shares",
          "type": "uint256"
        }
      ],
      "name": "previewMint",
      "outputs": [
        {
          "internalType": "uint256",
          "name": "",
          "type": "uint256"
        }
      ],
      "stateMutability": "view",
      "type": "function"
    },
    {
      "inputs": [
        {
          "internalType": "uint256",
          "name": "shares",
          "type": "uint256"
        }
      ],
      "name": "previewRedeem",
      "outputs": [
        {
          "internalType": "uint256",
          "name": "",
          "type": "uint256"
        }
      ],
      "stateMutability": "view",
      "type": "function"
    },
    {
      "inputs": [
        {
          "internalType": "uint256",
          "name": "assets",
          "type": "uint256"
        }
      ],
      "name": "previewWithdraw",
      "outputs": [
        {
          "internalType": "uint256",
          "name": "",
          "type": "uint256"
        }
      ],
      "stateMutability": "view",
      "type": "function"
    },
    {
      "inputs": [],
      "name": "renounceOwnership",
      "outputs": [],
      "stateMutability": "nonpayable",
      "type": "function"
    },
    {
      "inputs": [],
      "name": "shareToAssetsPrice",
      "outputs": [
        {
          "internalType": "uint256",
          "name": "",
          "type": "uint256"
        }
      ],
      "stateMutability": "view",
      "type": "function"
    },
    {
      "inputs": [],
      "name": "symbol",
      "outputs": [
        {
          "internalType": "string",
          "name": "",
          "type": "string"
        }
      ],
      "stateMutability": "view",
      "type": "function"
    },
    {
      "inputs": [],
      "name": "totalAssets",
      "outputs": [
        {
          "internalType": "uint256",
          "name": "",
          "type": "uint256"
        }
      ],
      "stateMutability": "view",
      "type": "function"
    },
    {
      "inputs": [],
      "name": "totalClosedPnl",
      "outputs": [
        {
          "internalType": "int256",
          "name": "",
          "type": "int256"
        }
      ],
      "stateMutability": "view",
      "type": "function"
    },
    {
      "inputs": [],
      "name": "totalDepleted",
      "outputs": [
        {
          "internalType": "uint256",
          "name": "",
          "type": "uint256"
        }
      ],
      "stateMutability": "view",
      "type": "function"
    },
    {
      "inputs": [],
      "name": "totalDepletedGns",
      "outputs": [
        {
          "internalType": "uint256",
          "name": "",
          "type": "uint256"
        }
      ],
      "stateMutability": "view",
      "type": "function"
    },
    {
      "inputs": [],
      "name": "totalDeposited",
      "outputs": [
        {
          "internalType": "uint256",
          "name": "",
          "type": "uint256"
        }
      ],
      "stateMutability": "view",
      "type": "function"
    },
    {
      "inputs": [],
      "name": "totalDiscounts",
      "outputs": [
        {
          "internalType": "uint256",
          "name": "",
          "type": "uint256"
        }
      ],
      "stateMutability": "view",
      "type": "function"
    },
    {
      "inputs": [],
      "name": "totalLiability",
      "outputs": [
        {
          "internalType": "int256",
          "name": "",
          "type": "int256"
        }
      ],
      "stateMutability": "view",
      "type": "function"
    },
    {
      "inputs": [],
      "name": "totalLockedDiscounts",
      "outputs": [
        {
          "internalType": "uint256",
          "name": "",
          "type": "uint256"
        }
      ],
      "stateMutability": "view",
      "type": "function"
    },
    {
      "inputs": [],
      "name": "totalRefilled",
      "outputs": [
        {
          "internalType": "uint256",
          "name": "",
          "type": "uint256"
        }
      ],
      "stateMutability": "view",
      "type": "function"
    },
    {
      "inputs": [],
      "name": "totalRefilledGns",
      "outputs": [
        {
          "internalType": "uint256",
          "name": "",
          "type": "uint256"
        }
      ],
      "stateMutability": "view",
      "type": "function"
    },
    {
      "inputs": [],
      "name": "totalRewards",
      "outputs": [
        {
          "internalType": "uint256",
          "name": "",
          "type": "uint256"
        }
      ],
      "stateMutability": "view",
      "type": "function"
    },
    {
      "inputs": [],
      "name": "totalSupply",
      "outputs": [
        {
          "internalType": "uint256",
          "name": "",
          "type": "uint256"
        }
      ],
      "stateMutability": "view",
      "type": "function"
    },
    {
      "inputs": [
        {
          "internalType": "uint256",
          "name": "",
          "type": "uint256"
        }
      ],
      "name": "withdrawLockThresholdsP",
      "outputs": [
        {
          "internalType": "uint256",
          "name": "",
          "type": "uint256"
        }
      ],
      "stateMutability": "view",
      "type": "function"
    },
    {
      "inputs": [
        {
          "internalType": "address",
          "name": "",
          "type": "address"
        },
        {
          "internalType": "uint256",
          "name": "",
          "type": "uint256"
        }
      ],
      "name": "withdrawRequests",
      "outputs": [
        {
          "internalType": "uint256",
          "name": "",
          "type": "uint256"
        }
      ],
      "stateMutability": "view",
      "type": "function"
    },
    {
      "inputs": [
        {
          "internalType": "string",
          "name": "_name",
          "type": "string"
        },
        {
          "internalType": "string",
          "name": "_symbol",
          "type": "string"
        },
        {
          "components": [
            {
              "internalType": "address",
              "name": "asset",
              "type": "address"
            },
            {
              "internalType": "address",
              "name": "owner",
              "type": "address"
            },
            {
              "internalType": "address",
              "name": "manager",
              "type": "address"
            },
            {
              "internalType": "address",
              "name": "admin",
              "type": "address"
            },
            {
              "internalType": "address",
              "name": "gnsToken",
              "type": "address"
            },
            {
              "internalType": "address",
              "name": "lockedDepositNft",
              "type": "address"
            },
            {
              "internalType": "address",
              "name": "pnlHandler",
              "type": "address"
            },
            {
              "internalType": "address",
              "name": "openTradesPnlFeed",
              "type": "address"
            },
            {
              "components": [
                {
                  "internalType": "address",
                  "name": "addr",
                  "type": "address"
                },
                {
                  "internalType": "bytes",
                  "name": "signature",
                  "type": "bytes"
                }
              ],
              "internalType": "struct GToken.GnsPriceProvider",
              "name": "gnsPriceProvider",
              "type": "tuple"
            }
          ],
          "internalType": "struct GToken.ContractAddresses",
          "name": "_contractAddresses",
          "type": "tuple"
        },
        {
          "internalType": "uint256",
          "name": "_MIN_LOCK_DURATION",
          "type": "uint256"
        },
        {
          "internalType": "uint256",
          "name": "_maxAccOpenPnlDelta",
          "type": "uint256"
        },
        {
          "internalType": "uint256",
          "name": "_maxDailyAccPnlDelta",
          "type": "uint256"
        },
        {
          "internalType": "uint256[2]",
          "name": "_withdrawLockThresholdsP",
          "type": "uint256[2]"
        },
        {
          "internalType": "uint256",
          "name": "_maxSupplyIncreaseDailyP",
          "type": "uint256"
        },
        {
          "internalType": "uint256",
          "name": "_lossesBurnP",
          "type": "uint256"
        },
        {
          "internalType": "uint256",
          "name": "_maxGnsSupplyMintDailyP",
          "type": "uint256"
        },
        {
          "internalType": "uint256",
          "name": "_maxDiscountP",
          "type": "uint256"
        },
        {
          "internalType": "uint256",
          "name": "_maxDiscountThresholdP",
          "type": "uint256"
        }
      ],
      "name": "initialize",
      "outputs": [],
      "stateMutability": "nonpayable",
      "type": "function"
    },
    {
      "inputs": [
        {
          "internalType": "address",
          "name": "newOwner",
          "type": "address"
        }
      ],
      "name": "transferOwnership",
      "outputs": [],
      "stateMutability": "nonpayable",
      "type": "function"
    },
    {
      "inputs": [
        {
          "internalType": "address",
          "name": "newValue",
          "type": "address"
        }
      ],
      "name": "updateManager",
      "outputs": [],
      "stateMutability": "nonpayable",
      "type": "function"
    },
    {
      "inputs": [
        {
          "internalType": "address",
          "name": "newValue",
          "type": "address"
        }
      ],
      "name": "updateAdmin",
      "outputs": [],
      "stateMutability": "nonpayable",
      "type": "function"
    },
    {
      "inputs": [
        {
          "internalType": "address",
          "name": "newValue",
          "type": "address"
        }
      ],
      "name": "updatePnlHandler",
      "outputs": [],
      "stateMutability": "nonpayable",
      "type": "function"
    },
    {
      "inputs": [
        {
          "components": [
            {
              "internalType": "address",
              "name": "addr",
              "type": "address"
            },
            {
              "internalType": "bytes",
              "name": "signature",
              "type": "bytes"
            }
          ],
          "internalType": "struct GToken.GnsPriceProvider",
          "name": "newValue",
          "type": "tuple"
        }
      ],
      "name": "updateGnsPriceProvider",
      "outputs": [],
      "stateMutability": "nonpayable",
      "type": "function"
    },
    {
      "inputs": [
        {
          "internalType": "address",
          "name": "newValue",
          "type": "address"
        }
      ],
      "name": "updateOpenTradesPnlFeed",
      "outputs": [],
      "stateMutability": "nonpayable",
      "type": "function"
    },
    {
      "inputs": [
        {
          "internalType": "uint256",
          "name": "newValue",
          "type": "uint256"
        }
      ],
      "name": "updateMaxAccOpenPnlDelta",
      "outputs": [],
      "stateMutability": "nonpayable",
      "type": "function"
    },
    {
      "inputs": [
        {
          "internalType": "uint256",
          "name": "newValue",
          "type": "uint256"
        }
      ],
      "name": "updateMaxDailyAccPnlDelta",
      "outputs": [],
      "stateMutability": "nonpayable",
      "type": "function"
    },
    {
      "inputs": [
        {
          "internalType": "uint256[2]",
          "name": "newValue",
          "type": "uint256[2]"
        }
      ],
      "name": "updateWithdrawLockThresholdsP",
      "outputs": [],
      "stateMutability": "nonpayable",
      "type": "function"
    },
    {
      "inputs": [
        {
          "internalType": "uint256",
          "name": "newValue",
          "type": "uint256"
        }
      ],
      "name": "updateMaxSupplyIncreaseDailyP",
      "outputs": [],
      "stateMutability": "nonpayable",
      "type": "function"
    },
    {
      "inputs": [
        {
          "internalType": "uint256",
          "name": "newValue",
          "type": "uint256"
        }
      ],
      "name": "updateLossesBurnP",
      "outputs": [],
      "stateMutability": "nonpayable",
      "type": "function"
    },
    {
      "inputs": [
        {
          "internalType": "uint256",
          "name": "newValue",
          "type": "uint256"
        }
      ],
      "name": "updateMaxGnsSupplyMintDailyP",
      "outputs": [],
      "stateMutability": "nonpayable",
      "type": "function"
    },
    {
      "inputs": [
        {
          "internalType": "uint256",
          "name": "newValue",
          "type": "uint256"
        }
      ],
      "name": "updateMaxDiscountP",
      "outputs": [],
      "stateMutability": "nonpayable",
      "type": "function"
    },
    {
      "inputs": [
        {
          "internalType": "uint256",
          "name": "newValue",
          "type": "uint256"
        }
      ],
      "name": "updateMaxDiscountThresholdP",
      "outputs": [],
      "stateMutability": "nonpayable",
      "type": "function"
    },
    {
      "inputs": [],
      "name": "maxAccPnlPerToken",
      "outputs": [
        {
          "internalType": "uint256",
          "name": "",
          "type": "uint256"
        }
      ],
      "stateMutability": "view",
      "type": "function"
    },
    {
      "inputs": [],
      "name": "collateralizationP",
      "outputs": [
        {
          "internalType": "uint256",
          "name": "",
          "type": "uint256"
        }
      ],
      "stateMutability": "view",
      "type": "function"
    },
    {
      "inputs": [],
      "name": "gnsTokenToAssetsPrice",
      "outputs": [
        {
          "internalType": "uint256",
          "name": "price",
          "type": "uint256"
        }
      ],
      "stateMutability": "view",
      "type": "function"
    },
    {
      "inputs": [],
      "name": "withdrawEpochsTimelock",
      "outputs": [
        {
          "internalType": "uint256",
          "name": "",
          "type": "uint256"
        }
      ],
      "stateMutability": "view",
      "type": "function"
    },
    {
      "inputs": [
        {
          "internalType": "uint256",
          "name": "collatP",
          "type": "uint256"
        },
        {
          "internalType": "uint256",
          "name": "lockDuration",
          "type": "uint256"
        }
      ],
      "name": "lockDiscountP",
      "outputs": [
        {
          "internalType": "uint256",
          "name": "",
          "type": "uint256"
        }
      ],
      "stateMutability": "view",
      "type": "function"
    },
    {
      "inputs": [
        {
          "internalType": "address",
          "name": "owner",
          "type": "address"
        }
      ],
      "name": "totalSharesBeingWithdrawn",
      "outputs": [
        {
          "internalType": "uint256",
          "name": "shares",
          "type": "uint256"
        }
      ],
      "stateMutability": "view",
      "type": "function"
    },
    {
      "inputs": [],
      "name": "tryUpdateCurrentMaxSupply",
      "outputs": [],
      "stateMutability": "nonpayable",
      "type": "function"
    },
    {
      "inputs": [],
      "name": "tryResetDailyAccPnlDelta",
      "outputs": [],
      "stateMutability": "nonpayable",
      "type": "function"
    },
    {
      "inputs": [],
      "name": "tryNewOpenPnlRequestOrEpoch",
      "outputs": [],
      "stateMutability": "nonpayable",
      "type": "function"
    },
    {
      "inputs": [
        {
          "internalType": "address",
          "name": "to",
          "type": "address"
        },
        {
          "internalType": "uint256",
          "name": "amount",
          "type": "uint256"
        }
      ],
      "name": "transfer",
      "outputs": [
        {
          "internalType": "bool",
          "name": "",
          "type": "bool"
        }
      ],
      "stateMutability": "nonpayable",
      "type": "function"
    },
    {
      "inputs": [
        {
          "internalType": "address",
          "name": "from",
          "type": "address"
        },
        {
          "internalType": "address",
          "name": "to",
          "type": "address"
        },
        {
          "internalType": "uint256",
          "name": "amount",
          "type": "uint256"
        }
      ],
      "name": "transferFrom",
      "outputs": [
        {
          "internalType": "bool",
          "name": "",
          "type": "bool"
        }
      ],
      "stateMutability": "nonpayable",
      "type": "function"
    },
    {
      "inputs": [],
      "name": "decimals",
      "outputs": [
        {
          "internalType": "uint8",
          "name": "",
          "type": "uint8"
        }
      ],
      "stateMutability": "view",
      "type": "function"
    },
    {
      "inputs": [
        {
          "internalType": "address",
          "name": "",
          "type": "address"
        }
      ],
      "name": "maxMint",
      "outputs": [
        {
          "internalType": "uint256",
          "name": "",
          "type": "uint256"
        }
      ],
      "stateMutability": "view",
      "type": "function"
    },
    {
      "inputs": [
        {
          "internalType": "address",
          "name": "owner",
          "type": "address"
        }
      ],
      "name": "maxDeposit",
      "outputs": [
        {
          "internalType": "uint256",
          "name": "",
          "type": "uint256"
        }
      ],
      "stateMutability": "view",
      "type": "function"
    },
    {
      "inputs": [
        {
          "internalType": "address",
          "name": "owner",
          "type": "address"
        }
      ],
      "name": "maxRedeem",
      "outputs": [
        {
          "internalType": "uint256",
          "name": "",
          "type": "uint256"
        }
      ],
      "stateMutability": "view",
      "type": "function"
    },
    {
      "inputs": [
        {
          "internalType": "address",
          "name": "owner",
          "type": "address"
        }
      ],
      "name": "maxWithdraw",
      "outputs": [
        {
          "internalType": "uint256",
          "name": "",
          "type": "uint256"
        }
      ],
      "stateMutability": "view",
      "type": "function"
    },
    {
      "inputs": [
        {
          "internalType": "uint256",
          "name": "assets",
          "type": "uint256"
        },
        {
          "internalType": "address",
          "name": "receiver",
          "type": "address"
        }
      ],
      "name": "deposit",
      "outputs": [
        {
          "internalType": "uint256",
          "name": "",
          "type": "uint256"
        }
      ],
      "stateMutability": "nonpayable",
      "type": "function"
    },
    {
      "inputs": [
        {
          "internalType": "uint256",
          "name": "shares",
          "type": "uint256"
        },
        {
          "internalType": "address",
          "name": "receiver",
          "type": "address"
        }
      ],
      "name": "mint",
      "outputs": [
        {
          "internalType": "uint256",
          "name": "",
          "type": "uint256"
        }
      ],
      "stateMutability": "nonpayable",
      "type": "function"
    },
    {
      "inputs": [
        {
          "internalType": "uint256",
          "name": "assets",
          "type": "uint256"
        },
        {
          "internalType": "address",
          "name": "receiver",
          "type": "address"
        },
        {
          "internalType": "address",
          "name": "owner",
          "type": "address"
        }
      ],
      "name": "withdraw",
      "outputs": [
        {
          "internalType": "uint256",
          "name": "",
          "type": "uint256"
        }
      ],
      "stateMutability": "nonpayable",
      "type": "function"
    },
    {
      "inputs": [
        {
          "internalType": "uint256",
          "name": "shares",
          "type": "uint256"
        },
        {
          "internalType": "address",
          "name": "receiver",
          "type": "address"
        },
        {
          "internalType": "address",
          "name": "owner",
          "type": "address"
        }
      ],
      "name": "redeem",
      "outputs": [
        {
          "internalType": "uint256",
          "name": "",
          "type": "uint256"
        }
      ],
      "stateMutability": "nonpayable",
      "type": "function"
    },
    {
      "inputs": [
        {
          "internalType": "uint256",
          "name": "shares",
          "type": "uint256"
        },
        {
          "internalType": "address",
          "name": "owner",
          "type": "address"
        }
      ],
      "name": "makeWithdrawRequest",
      "outputs": [],
      "stateMutability": "nonpayable",
      "type": "function"
    },
    {
      "inputs": [
        {
          "internalType": "uint256",
          "name": "shares",
          "type": "uint256"
        },
        {
          "internalType": "address",
          "name": "owner",
          "type": "address"
        },
        {
          "internalType": "uint256",
          "name": "unlockEpoch",
          "type": "uint256"
        }
      ],
      "name": "cancelWithdrawRequest",
      "outputs": [],
      "stateMutability": "nonpayable",
      "type": "function"
    },
    {
      "inputs": [
        {
          "internalType": "uint256",
          "name": "assets",
          "type": "uint256"
        },
        {
          "internalType": "uint256",
          "name": "lockDuration",
          "type": "uint256"
        },
        {
          "internalType": "address",
          "name": "receiver",
          "type": "address"
        }
      ],
      "name": "depositWithDiscountAndLock",
      "outputs": [
        {
          "internalType": "uint256",
          "name": "",
          "type": "uint256"
        }
      ],
      "stateMutability": "nonpayable",
      "type": "function"
    },
    {
      "inputs": [
        {
          "internalType": "uint256",
          "name": "shares",
          "type": "uint256"
        },
        {
          "internalType": "uint256",
          "name": "lockDuration",
          "type": "uint256"
        },
        {
          "internalType": "address",
          "name": "receiver",
          "type": "address"
        }
      ],
      "name": "mintWithDiscountAndLock",
      "outputs": [
        {
          "internalType": "uint256",
          "name": "",
          "type": "uint256"
        }
      ],
      "stateMutability": "nonpayable",
      "type": "function"
    },
    {
      "inputs": [
        {
          "internalType": "uint256",
          "name": "depositId",
          "type": "uint256"
        },
        {
          "internalType": "address",
          "name": "receiver",
          "type": "address"
        }
      ],
      "name": "unlockDeposit",
      "outputs": [],
      "stateMutability": "nonpayable",
      "type": "function"
    },
    {
      "inputs": [
        {
          "internalType": "uint256",
          "name": "assets",
          "type": "uint256"
        }
      ],
      "name": "distributeReward",
      "outputs": [],
      "stateMutability": "nonpayable",
      "type": "function"
    },
    {
      "inputs": [
        {
          "internalType": "uint256",
          "name": "assets",
          "type": "uint256"
        },
        {
          "internalType": "address",
          "name": "receiver",
          "type": "address"
        }
      ],
      "name": "sendAssets",
      "outputs": [],
      "stateMutability": "nonpayable",
      "type": "function"
    },
    {
      "inputs": [
        {
          "internalType": "uint256",
          "name": "assets",
          "type": "uint256"
        },
        {
          "internalType": "address",
          "name": "user",
          "type": "address"
        }
      ],
      "name": "receiveAssets",
      "outputs": [],
      "stateMutability": "nonpayable",
      "type": "function"
    },
    {
      "inputs": [
        {
          "internalType": "uint256",
          "name": "assets",
          "type": "uint256"
        }
      ],
      "name": "deplete",
      "outputs": [],
      "stateMutability": "nonpayable",
      "type": "function"
    },
    {
      "inputs": [
        {
          "internalType": "uint256",
          "name": "assets",
          "type": "uint256"
        }
      ],
      "name": "refill",
      "outputs": [],
      "stateMutability": "nonpayable",
      "type": "function"
    },
    {
      "inputs": [
        {
          "internalType": "uint256",
          "name": "prevPositiveOpenPnl",
          "type": "uint256"
        },
        {
          "internalType": "uint256",
          "name": "newPositiveOpenPnl",
          "type": "uint256"
        }
      ],
      "name": "updateAccPnlPerTokenUsed",
      "outputs": [
        {
          "internalType": "uint256",
          "name": "",
          "type": "uint256"
        }
      ],
      "stateMutability": "nonpayable",
      "type": "function"
    },
    {
      "inputs": [
        {
          "internalType": "uint256",
          "name": "depositId",
          "type": "uint256"
        }
      ],
      "name": "getLockedDeposit",
      "outputs": [
        {
          "components": [
            {
              "internalType": "address",
              "name": "owner",
              "type": "address"
            },
            {
              "internalType": "uint256",
              "name": "shares",
              "type": "uint256"
            },
            {
              "internalType": "uint256",
              "name": "assetsDeposited",
              "type": "uint256"
            },
            {
              "internalType": "uint256",
              "name": "assetsDiscount",
              "type": "uint256"
            },
            {
              "internalType": "uint256",
              "name": "atTimestamp",
              "type": "uint256"
            },
            {
              "internalType": "uint256",
              "name": "lockDuration",
              "type": "uint256"
            }
          ],
          "internalType": "struct IGToken.LockedDeposit",
          "name": "",
          "type": "tuple"
        }
      ],
      "stateMutability": "view",
      "type": "function"
    },
    {
      "inputs": [],
      "name": "tvl",
      "outputs": [
        {
          "internalType": "uint256",
          "name": "",
          "type": "uint256"
        }
      ],
      "stateMutability": "view",
      "type": "function"
    },
    {
      "inputs": [],
      "name": "availableAssets",
      "outputs": [
        {
          "internalType": "uint256",
          "name": "",
          "type": "uint256"
        }
      ],
      "stateMutability": "view",
      "type": "function"
    },
    {
      "inputs": [],
      "name": "currentBalanceDai",
      "outputs": [
        {
          "internalType": "uint256",
          "name": "",
          "type": "uint256"
        }
      ],
      "stateMutability": "view",
      "type": "function"
    }
  ],
  "bytecode": "0x608060405234801561001057600080fd5b50615eb080620000216000396000f3fe608060405234801561001057600080fd5b50600436106106c55760003560e01c806394bf804d11610387578063cf39c2db116101de578063e7899c061161010f578063f31bd8f7116100ad578063f8fb10f711610087578063f8fb10f714610e08578063faf33f2914610e11578063fe0b6d9014610e1a578063ff50abdc14610e2d57600080fd5b8063f31bd8f714610dd9578063f5521eaa14610de2578063f851a44014610df557600080fd5b8063ef01ed93116100e9578063ef01ed9314610db4578063ef8b30f714610c0b578063f0a7744614610dbd578063f2fde38b14610dc657600080fd5b8063e7899c0614610d90578063e8e4311014610d98578063ea5f2bba14610dab57600080fd5b8063dd62ed3e1161017c578063e2f273bd11610156578063e2f273bd14610cff578063e5328e0614610d12578063e66a6e3b14610d1a578063e783967614610d2d57600080fd5b8063dd62ed3e14610cda578063ddd65e3114610ced578063e065600514610cf657600080fd5b8063d272df10116101b8578063d272df1014610ca3578063d8bdfd4814610cb6578063d905777e14610cbe578063db0447d514610cd157600080fd5b8063cf39c2db14610c6a578063d1e08c2014610c7d578063d229b2dd14610c9057600080fd5b8063b460af94116102b8578063c63384ab11610256578063ca9d07ba11610230578063ca9d07ba14610c1e578063cb7f2c3914610c31578063ce96cb7714610c44578063ce9e1b2114610c5757600080fd5b8063c63384ab14610bf0578063c63d75b614610bf8578063c6e6f59214610c0b57600080fd5b8063ba08765211610292578063ba08765214610bb9578063be216e8314610bcc578063c117ef3d14610bd4578063c4c1416914610bdd57600080fd5b8063b460af9414610b0f578063b54bf9c914610b22578063b82c589914610b3557600080fd5b8063a8abe90511610325578063ad00a5a4116102ff578063ad00a5a414610acd578063b224e73514610ae0578063b3c4850a14610ae9578063b3d7f6b914610afc57600080fd5b8063a8abe90514610a94578063a9059cbb14610aa7578063aabf8ede14610aba57600080fd5b80639aca06dc116103615780639aca06dc14610a52578063a457c2d714610a5b578063a481c14b14610a6e578063a50043a014610a8157600080fd5b806394bf804d14610a2457806395d89b4114610a37578063979abb2514610a3f57600080fd5b80634cdad5061161053b5780636e553f651161046c57806378b4330f1161040a5780637fcff2af116103e45780637fcff2af146109ee5780638c465629146109f75780638da5cb5b14610a00578063940a4e4514610a1157600080fd5b806378b4330f146109c957806379431d9c146109d25780637dfc6922146109e557600080fd5b8063715018a611610446578063715018a61461099c5780637361a544146109a457806375cd9da9146109b757806376671808146109c057600080fd5b80636e553f651461094d5780636ee432f21461096057806370a082311461097357600080fd5b80635e93f860116104d95780636445ec00116104b35780636445ec00146108fe57806366d8ecf1146109065780636ce7dcc91461090f5780636d6ca3191461092257600080fd5b80635e93f860146108e35780635f4ae741146108ec57806361a8c8c4146108f557600080fd5b80635450884711610515578063545088471461089457806358aba00f146108a7578063596f0bc5146108ba5780635a6953d3146108d057600080fd5b80634cdad5061461070f5780634ea0ddf71461088257806353409be21461088b57600080fd5b80631f91f28711610615578063313ce567116105b35780633b418c1e1161058d5780633b418c1e1461084a5780633cc7752714610853578063402d267d1461085c578063481c6a751461086f57600080fd5b8063313ce5671461080757806338d52e0f14610826578063395093511461083757600080fd5b806320e70a56116105ef57806320e70a56146107cf578063215e2fae146107e257806322b2ef85146107eb57806323b872dd146107f457600080fd5b80631f91f287146107945780631fc8d099146107bf57806320124bce146107c757600080fd5b80630a28a477116106825780630fc293491161065c5780630fc29349146107715780630fcc6f311461077a578063104aeef81461078357806318160ddd1461078c57600080fd5b80630a28a4771461074d5780630dfb5287146107605780630e15561a1461076857600080fd5b806301e1d114146106ca5780630344e8a3146106e557806306fdde03146106fa57806307a2d13a1461070f5780630851a20214610722578063095ea7b31461072a575b600080fd5b6106d2610e36565b6040519081526020015b60405180910390f35b6106f86106f3366004615288565b610ea8565b005b610702611266565b6040516106dc9190615308565b6106d261071d36600461531b565b6112f8565b6106d261130b565b61073d610738366004615334565b611315565b60405190151581526020016106dc565b6106d261075b36600461531b565b61132d565b6106f861133a565b6106d260ef5481565b6106d260f05481565b6106d260ee5481565b6106d260e55481565b6035546106d2565b60ce546107a7906001600160a01b031681565b6040516001600160a01b0390911681526020016106dc565b6106d26113f5565b6106d2611507565b6106f86107dd366004615360565b611544565b6106d260e85481565b6106d260e65481565b61073d61080236600461537d565b6115e1565b606554600160a01b900460ff1660405160ff90911681526020016106dc565b6065546001600160a01b03166107a7565b61073d610845366004615334565b61166e565b6106d260d45481565b6106d260d95481565b6106d261086a366004615360565b611690565b60cb546107a7906001600160a01b031681565b6106d260de5481565b6106d260f15481565b6106f86108a236600461531b565b6116a5565b6106f86108b5366004615360565b611776565b6108c261184a565b6040516106dc9291906153be565b60cd546107a7906001600160a01b031681565b6106d260e05481565b6106d260f55481565b6106d260e35481565b6106f86118eb565b6106d260ea5481565b6106f861091d36600461531b565b61198c565b6106d2610930366004615334565b60e760209081526000928352604080842090915290825290205481565b6106d261095b366004615288565b611afd565b6106d261096e36600461531b565b611bc9565b6106d2610981366004615360565b6001600160a01b031660009081526033602052604090205490565b6106f8611be0565b6106d26109b23660046153e2565b611bf2565b6106d260d85481565b6106d260e25481565b6106d260d15481565b60ca546107a7906001600160a01b031681565b6106d260db5481565b6106d260df5481565b6106d260eb5481565b6097546001600160a01b03166107a7565b6106f8610a1f36600461531b565b611dbe565b6106d2610a32366004615288565b611e69565b610702611f2b565b6106f8610a4d36600461531b565b611f3a565b6106d260f25481565b61073d610a69366004615334565b61200d565b6106f8610a7c366004615288565b612093565b6106f8610a8f366004615404565b612219565b6106f8610aa2366004615288565b61237c565b61073d610ab5366004615334565b61259b565b6106f8610ac83660046156d2565b612610565b6106d2610adb366004615360565b612aa2565b6106d260e15481565b6106d2610af73660046157cc565b612b23565b6106d2610b0a36600461531b565b612d10565b6106d2610b1d366004615805565b612d1d565b6106f8610b3036600461583c565b612e27565b610b82610b4336600461531b565b60e9602052600090815260409020805460018201546002830154600384015460048501546005909501546001600160a01b039094169492939192909186565b604080516001600160a01b0390971687526020870195909552938501929092526060840152608083015260a082015260c0016106dc565b6106d2610bc7366004615805565b612f29565b6106d2613027565b6106d260f45481565b6106f8610beb36600461531b565b61303f565b6106d26130f7565b6106d2610c06366004615360565b613168565b6106d2610c1936600461531b565b613197565b6106f8610c2c36600461531b565b6131a4565b60c9546107a7906001600160a01b031681565b6106d2610c52366004615360565b6134fe565b6106f8610c6536600461531b565b61350c565b6106f8610c7836600461531b565b6135b9565b6106d2610c8b3660046153e2565b61368c565b6106f8610c9e366004615360565b613721565b6106f8610cb136600461531b565b6137b0565b6106d2613807565b6106d2610ccc366004615360565b6138ab565b6106d260d75481565b6106d2610ce8366004615871565b613964565b6106d260dd5481565b6106d260ec5481565b6106f8610d0d366004615360565b61398f565b6106d2613a8c565b6106f8610d28366004615288565b613aa8565b610d40610d3b36600461531b565b613c95565b6040516106dc919081516001600160a01b031681526020808301519082015260408083015190820152606080830151908201526080808301519082015260a0918201519181019190915260c00190565b6106f8613d39565b6106d2610da63660046157cc565b613d84565b6106d260dc5481565b6106d260f65481565b6106d260d35481565b6106f8610dd4366004615360565b613f69565b6106d260f35481565b6106f8610df036600461589f565b614027565b60cc546107a7906001600160a01b031681565b6106d260da5481565b6106d260e45481565b6106f8610e2836600461531b565b6140af565b6106d260ed5481565b6065546040516370a0823160e01b81523060048201526000916001600160a01b0316906370a0823190602401602060405180830381865afa158015610e7f573d6000803e3d6000fd5b505050506040513d601f19601f82011682018060405250810190610ea391906158bb565b905090565b600082815260e960205260408120903360ca546040516331a9108f60e11b8152600481018790529192506000916001600160a01b0390911690636352211e90602401602060405180830381865afa158015610f07573d6000803e3d6000fd5b505050506040513d601f19601f82011682018060405250810190610f2b91906158d4565b9050816001600160a01b0316816001600160a01b03161480610fc2575060ca5460405163020604bf60e21b8152600481018790526001600160a01b0384811692169063081812fc90602401602060405180830381865afa158015610f93573d6000803e3d6000fd5b505050506040513d601f19601f82011682018060405250810190610fb791906158d4565b6001600160a01b0316145b8061103e575060ca5460405163e985e9c560e01b81526001600160a01b03838116600483015284811660248301529091169063e985e9c590604401602060405180830381865afa15801561101a573d6000803e3d6000fd5b505050506040513d601f19601f8201168201806040525081019061103e91906158f1565b6110635760405162461bcd60e51b815260040161105a90615913565b60405180910390fd5b82600501548360040154611077919061594e565b4210156110b55760405162461bcd60e51b815260206004820152600c60248201526b1393d517d5539313d0d2d15160a21b604482015260640161105a565b60006110da670de0b6b3a76400006110cc60355490565b60038701549190600161416e565b90508060de60008282546110ee9190615961565b909155506110fc9050613027565b60de5413156111415760405162461bcd60e51b81526020600482015260116024820152704e4f545f454e4f5547485f41535345545360781b604482015260640161105a565b60ca54604051630852cd8d60e31b8152600481018890526001600160a01b03909116906342966c6890602401600060405180830381600087803b15801561118757600080fd5b505af115801561119b573d6000803e3d6000fd5b505050508060dd60008282546111b19190615961565b909155506111bf90506141cd565b836003015460f060008282546111d59190615961565b9091555050600384015460f180546000906111f1908490615989565b9250508190555061120730868660010154614229565b816001600160a01b0316856001600160a01b0316846001600160a01b03167fe37405a4f414fe3119839681cc26ea3462fc575fd2f81734417e52144d3f34b9898860405161125692919061599c565b60405180910390a4505050505050565b606060368054611275906159e6565b80601f01602080910402602001604051908101604052809291908181526020018280546112a1906159e6565b80156112ee5780601f106112c3576101008083540402835291602001916112ee565b820191906000526020600020905b8154815290600101906020018083116112d157829003601f168201915b5050505050905090565b60006113058260006143cd565b92915050565b6000610ea3611507565b60003361132381858561440e565b5060019392505050565b6000611305826001614532565b60ce5460408051600481526024810182526020810180516001600160e01b031663bef35b7960e01b17905290516000926001600160a01b03169161137d91615a1a565b6000604051808303816000865af19150503d80600081146113ba576040519150601f19603f3d011682016040523d82523d6000602084013e6113bf565b606091505b50509050806113f2576040517f46f2d6138acb3be39ad6ae5c9279b648c2a2c68743d0ddc18cc3a81cedecebd590600090a15b50565b60cf54604051600091829182916001600160a01b0316906114189060d090615a36565b600060405180830381855afa9150503d8060008114611453576040519150601f19603f3d011682016040523d82523d6000602084013e611458565b606091505b5090925090506001821515146114a85760405162461bcd60e51b815260206004820152601560248201527411d394d7d4149250d157d0d0531317d19052531151605a1b604482015260640161105a565b808060200190518101906114bc91906158bb565b9250600083116115025760405162461bcd60e51b81526020600482015260116024820152700474e535f544f4b454e5f50524943455f3607c1b604482015260640161105a565b505090565b6000670de0b6b3a764000061151b60355490565b60dd54611526613027565b6115309190615aac565b61153a9190615acc565b610ea39190615af9565b61154c61454e565b6001600160a01b0381166115725760405162461bcd60e51b815260040161105a90615b0d565b60ce80546001600160a01b0319166001600160a01b03831690811790915560408051818152601191810191909152701bdc195b951c9859195cd41b9b11995959607a1b60608201526020810191909152600080516020615e5b833981519152906080015b60405180910390a150565b6001600160a01b038316600090815260336020526040812054611605908390615989565b61160e85612aa2565b11156116515760405162461bcd60e51b815260206004820152601260248201527114115391125391d7d5d2551211149055d05360721b604482015260640161105a565b61165c8433846145a8565b611323848484614229565b9392505050565b6000336113238185856116818383613964565b61168b919061594e565b61440e565b600061130561169e83613168565b60006143cd565b60cb546001600160a01b0316336001600160a01b0316146116d85760405162461bcd60e51b815260040161105a90615b30565b6116eb600a670de0b6b3a7640000615af9565b8110156117265760405162461bcd60e51b81526020600482015260096024820152682122a627abafa6a4a760b91b604482015260640161105a565b60d481905560408051818152601391810191909152726d61784461696c79416363506e6c44656c746160681b606082015260208101829052600080516020615e3b833981519152906080016115d6565b61177e61454e565b6001600160a01b0381166117a45760405162461bcd60e51b815260040161105a90615b0d565b6097546001600160a01b038281169116148015906117d0575060cc546001600160a01b03828116911614155b6117ec5760405162461bcd60e51b815260040161105a90615b56565b60cb80546001600160a01b0319166001600160a01b038316908117909155604080518181526007918101919091526636b0b730b3b2b960c91b60608201526020810191909152600080516020615e5b833981519152906080016115d6565b60cf805460d080546001600160a01b039092169291611868906159e6565b80601f0160208091040260200160405190810160405280929190818152602001828054611894906159e6565b80156118e15780601f106118b6576101008083540402835291602001916118e1565b820191906000526020600020905b8154815290600101906020018083116118c457829003601f168201915b5050505050905082565b6201518060e654426118fd9190615989565b1061198a57611915670de0b6b3a76400006064615acc565b60d75461192b670de0b6b3a76400006064615acc565b611935919061594e565b6035546119429190615acc565b61194c9190615af9565b60e58190554260e6556040519081527fd103db6eec024592fa6d47db028ec6408076ac4762eb021a6e52b525828bab9b906020015b60405180910390a15b565b60ea548111156119cf5760405162461bcd60e51b815260206004820152600e60248201526d414d4f554e545f544f4f5f42494760901b604482015260640161105a565b8060ea60008282546119e19190615989565b9091555060009050611a046402540be4006119fa6113f5565b849190600161416e565b905060003360c954604051632770a7eb60e21b81526001600160a01b03808416600483015260248201869052929350911690639dc29fac90604401600060405180830381600087803b158015611a5957600080fd5b505af1158015611a6d573d6000803e3d6000fd5b505050508260f36000828254611a83919061594e565b925050819055508160f46000828254611a9c919061594e565b90915550611ab49050611aad61461c565b8285614630565b60408051848152602081018490526001600160a01b038316917f1fb4f167278bb29c47ac4fd58ca1586b0626b52807f2991ef78abdbb97bb4333910160405180910390a2505050565b600082600060dc5411611b225760405162461bcd60e51b815260040161105a90615b7b565b60008111611b425760405162461bcd60e51b815260040161105a90615b9c565b611b4b83611690565b841115611b9a5760405162461bcd60e51b815260206004820152601e60248201527f455243343632363a206465706f736974206d6f7265207468616e206d61780000604482015260640161105a565b6000611ba585613197565b9050611bb381866001614698565b611bbf33858784614772565b91505b5092915050565b60d58160028110611bd957600080fd5b0154905081565b611be861454e565b61198a60006147e2565b60ce5460009033906001600160a01b03168114611c415760405162461bcd60e51b815260206004820152600d60248201526c13d3931657d4139317d1915151609a1b604482015260640161105a565b6000611c4d8585615aac565b90506000611c5a60355490565b90506000611cba670de0b6b3a76400008360de54611c76613027565b611c809190615aac565b611c8a9190615acc565b611c949190615af9565b670de0b6b3a76400008460d354611cab9190615acc565b611cb59190615af9565b614834565b9050808313611cc95782611ccb565b805b925081611ce0670de0b6b3a764000085615bbd565b611cea9190615bed565b60de6000828254611cfb9190615961565b925050819055508260f06000828254611d149190615961565b909155505060de5460dd55611d276141cd565b60e28054906000611d3783615c1b565b90915550504260e355611d4a8388615961565b60e455611d556118eb565b60e25460e45460dd54604080518b8152602081018b90529081019290925260608201526001600160a01b038616907f115621a72d6f59323a1d752b116219634bc004cadb85d6bdc8e7eb254905722d9060800160405180910390a3505060e45495945050505050565b33611dd2611dca61461c565b82308561484a565b603554611de7670de0b6b3a764000084615acc565b611df19190615af9565b60df6000828254611e02919061594e565b90915550611e1090506141cd565b8160ef6000828254611e22919061594e565b90915550506040518281526001600160a01b038216907fe34918ff1c7084970068b53fd71ad6d8b04e9f15d3886cbf006443e6cdc52ea69060200160405180910390a25050565b600082600060dc5411611e8e5760405162461bcd60e51b815260040161105a90615b7b565b60008111611eae5760405162461bcd60e51b815260040161105a90615b9c565b611eb783613168565b841115611f065760405162461bcd60e51b815260206004820152601b60248201527f455243343632363a206d696e74206d6f7265207468616e206d61780000000000604482015260640161105a565b6000611f1185612d10565b9050611f1f85826001614698565b611bbf33858388614772565b606060378054611275906159e6565b60cb546001600160a01b0316336001600160a01b031614611f6d5760405162461bcd60e51b815260040161105a90615b30565b611f80670de0b6b3a7640000600a615acc565b811115611fc45760405162461bcd60e51b8152602060048201526012602482015271105093d59157d3505617d11254d0d3d5539560721b604482015260640161105a565b60da81905560408051818152600c918101919091526b06d6178446973636f756e74560a41b606082015260208101829052600080516020615e3b833981519152906080016115d6565b6000338161201b8286613964565b90508381101561207b5760405162461bcd60e51b815260206004820152602560248201527f45524332303a2064656372656173656420616c6c6f77616e63652062656c6f77604482015264207a65726f60d81b606482015260840161105a565b612088828686840361440e565b506001949350505050565b336120a761209f61461c565b82308661484a565b60dd54839060001380156120bd5750600060de54125b156121195760006064670de0b6b3a764000060d854876120dd9190615acc565b6120e79190615af9565b6120f19190615af9565b90508060ea6000828254612105919061594e565b9091555061211590508183615989565b9150505b600061212460355490565b612136670de0b6b3a764000084615acc565b6121409190615af9565b90508060de60008282546121549190615aac565b909155506121629050613d39565b8060e060008282546121749190615aac565b925050819055508160f0600082825461218d9190615aac565b925050819055508160ee60008282546121a69190615aac565b909155506121b4905061133a565b6121bc6118eb565b836001600160a01b0316836001600160a01b03167f2083893e39f8ae736fed502f7e149cc5bfe6159878615fae685a9a98bc452d5a878560405161220a929190918252602082015260400190565b60405180910390a35050505050565b6001600160a01b038216600090815260e76020908152604080832084845290915290205483111561228c5760405162461bcd60e51b815260206004820152601960248201527f4d4f52455f5448414e5f57495448445241575f414d4f554e5400000000000000604482015260640161105a565b3360006122998483613964565b9050836001600160a01b0316826001600160a01b031614806122c657506000811180156122c65750848110155b6122e25760405162461bcd60e51b815260040161105a90615913565b6001600160a01b038416600090815260e76020908152604080832086845290915281208054879290612315908490615989565b9250508190555082846001600160a01b0316836001600160a01b03167f443ccdbbbde35bd48740a9ea14c47318b735db4631ed1ebcdaaaa9f4636c84ea8860e25460405161236d929190918252602082015260400190565b60405180910390a45050505050565b60ce60009054906101000a90046001600160a01b03166001600160a01b031663b8feee646040518163ffffffff1660e01b8152600401602060405180830381865afa1580156123cf573d6000803e3d6000fd5b505050506040513d601f19601f820116820180604052508101906123f391906158bb565b1561242f5760405162461bcd60e51b815260206004820152600c60248201526b08a9c88be9e8cbe8aa09e86960a31b604482015260640161105a565b33600061243c8383613964565b9050826001600160a01b0316826001600160a01b0316148061246957506000811180156124695750838110155b6124855760405162461bcd60e51b815260040161105a90615913565b6001600160a01b038316600090815260336020526040902054846124a885612aa2565b6124b2919061594e565b11156124f45760405162461bcd60e51b81526020600482015260116024820152704d4f52455f5448414e5f42414c414e434560781b604482015260640161105a565b60006124fe613807565b60e25461250b919061594e565b6001600160a01b038516600090815260e76020908152604080832084845290915281208054929350879290919061254390849061594e565b9250508190555080846001600160a01b0316846001600160a01b03167f21b8e5e36008677ea26efbbc967e568e01b127f731ed0fda0a8685fda37d0d5f8860e25460405161236d929190918252602082015260400190565b336000818152603360205260408120549091906125b9908490615989565b6125c282612aa2565b11156126055760405162461bcd60e51b815260206004820152601260248201527114115391125391d7d5d2551211149055d05360721b604482015260640161105a565b611323818585614229565b600054610100900460ff16158080156126305750600054600160ff909116105b8061264a5750303b15801561264a575060005460ff166001145b6126ad5760405162461bcd60e51b815260206004820152602e60248201527f496e697469616c697a61626c653a20636f6e747261637420697320616c72656160448201526d191e481a5b9a5d1a585b1a5e995960921b606482015260840161105a565b6000805460ff1916600117905580156126d0576000805461ff0019166101001790555b8a516001600160a01b0316158015906126f5575060208b01516001600160a01b031615155b801561270d575060408b01516001600160a01b031615155b8015612725575060608b01516001600160a01b031615155b801561274b57508a604001516001600160a01b03168b602001516001600160a01b031614155b801561277157508a606001516001600160a01b03168b604001516001600160a01b031614155b8015612789575060808b01516001600160a01b031615155b80156127a1575060a08b01516001600160a01b031615155b80156127b9575060c08b01516001600160a01b031615155b80156127d1575060e08b01516001600160a01b031615155b80156127eb57506101008b0151516001600160a01b031615155b8015612801575060008b61010001516020015151115b801561281f575061281b600a670de0b6b3a7640000615af9565b8810155b801561282f575086516020880151115b801561284d5750612849670de0b6b3a76400006032615acc565b8611155b801561286b5750612867670de0b6b3a76400006019615acc565b8511155b801561288957506128856014670de0b6b3a7640000615af9565b8411155b80156128a757506128a3670de0b6b3a7640000600a615acc565b8311155b80156128c557506128c1670de0b6b3a76400006064615acc565b8210155b6129005760405162461bcd60e51b815260206004820152600c60248201526b57524f4e475f504152414d5360a01b604482015260640161105a565b61290a8d8d614882565b8a51612915906148b7565b6129228b602001516147e2565b60808b015160c980546001600160a01b03199081166001600160a01b039384161790915560a08d015160ca8054831691841691909117905560408d015160cb8054831691841691909117905560608d015160cc8054831691841691909117905560c08d015160cd8054831691841691909117905560e08d015160ce805483169184169190911790556101008d0151805160cf80549093169316929092178155602082015160d0906129d39082615c98565b50505060d18a905560d389905560d48890556129f260d58860026151d0565b5060d786905560d885905560d984905560da83905560db829055670de0b6b3a764000060dc55600160e28190554260e3556040805160608101825260038082526002602083015291810192909252612a4c9160d29161520e565b508015612a93576000805461ff0019169055604051600181527f7f26b83ff96e1f2b6a682f133852f6798a09c465da95921460cefb38474024989060200160405180910390a15b50505050505050505050505050565b60e2546000905b60d2600081548110612abd57612abd615c34565b906000526020600020015460e254612ad5919061594e565b8111612b1d576001600160a01b038316600090815260e760209081526040808320848452909152902054612b09908361594e565b915080612b1581615c1b565b915050612aa9565b50919050565b600083600060dc5411612b485760405162461bcd60e51b815260040161105a90615b7b565b60008111612b685760405162461bcd60e51b815260040161105a90615b9c565b83600060da5411612bb05760405162461bcd60e51b81526020600482015260126024820152711393d7d050d512559157d11254d0d3d5539560721b604482015260640161105a565b60d154811015612bfc5760405162461bcd60e51b81526020600482015260176024820152762122a627abafa6a4a72fa627a1a5afa22aa920aa24a7a760491b604482015260640161105a565b6301e13380811115612c4a5760405162461bcd60e51b815260206004820152601760248201527620a127ab22afa6a0ac2fa627a1a5afa22aa920aa24a7a760491b604482015260640161105a565b612c5384613168565b861115612c975760405162461bcd60e51b815260206004820152601260248201527109a929ca8be9a9ea48abea890829cbe9a82b60731b604482015260640161105a565b6000612ca287612d10565b9050612d0581612cb9612cb36130f7565b8961368c565b612ccc670de0b6b3a76400006064615acc565b612cd6919061594e565b612ce9670de0b6b3a76400006064615acc565b612cf39085615acc565b612cfd9190615af9565b8989896148e7565b979650505050505050565b60006113058260016143cd565b600083600060dc5411612d425760405162461bcd60e51b815260040161105a90615b7b565b60008111612d625760405162461bcd60e51b815260040161105a90615b9c565b612d6b836134fe565b851115612dba5760405162461bcd60e51b815260206004820152601f60248201527f455243343632363a207769746864726177206d6f7265207468616e206d617800604482015260640161105a565b6000612dc58661132d565b6001600160a01b038516600090815260e76020908152604080832060e2548452909152812080549293508392909190612dff908490615989565b90915550612e11905081876000614698565b612e1e3386868985614aa2565b95945050505050565b60cb546001600160a01b0316336001600160a01b031614612e5a5760405162461bcd60e51b815260040161105a90615b30565b80516001600160a01b0316612e815760405162461bcd60e51b815260040161105a90615b0d565b600081602001515111612ec05760405162461bcd60e51b8152602060048201526007602482015266042595445535f360cc1b604482015260640161105a565b805160cf80546001600160a01b0319166001600160a01b03909216919091178155602082015182919060d090612ef69082615c98565b509050507f2763c7adb1b7018e25499ef5553ec78e35bb46be6384b393861c35d501825dce816040516115d69190615d58565b600083600060dc5411612f4e5760405162461bcd60e51b815260040161105a90615b7b565b60008111612f6e5760405162461bcd60e51b815260040161105a90615b9c565b612f77836138ab565b851115612fc65760405162461bcd60e51b815260206004820152601d60248201527f455243343632363a2072656465656d206d6f7265207468616e206d6178000000604482015260640161105a565b6001600160a01b038316600090815260e76020908152604080832060e254845290915281208054879290612ffb908490615989565b909155506000905061300c866112f8565b905061301a86826000614698565b612e1e338686848a614aa2565b600060df54670de0b6b3a7640000610ea3919061594e565b60cb546001600160a01b0316336001600160a01b0316146130725760405162461bcd60e51b815260040161105a90615b30565b6130856014670de0b6b3a7640000615af9565b8111156130a45760405162461bcd60e51b815260040161105a90615d85565b60d9819055604080518181526016918101919091527506d6178476e73537570706c794d696e744461696c79560541b606082015260208101829052600080516020615e3b833981519152906080016115d6565b600080613102613027565b905080670de0b6b3a7640000600060dd54136131365760dd5461312790600019615bbd565b613131908461594e565b613143565b60dd546131439084615989565b61314e906064615acc565b6131589190615acc565b6131629190615af9565b91505090565b60008060dd541361317b57600019611305565b61318a60e554611cb560355490565b60e5546113059190615989565b6000611305826000614532565b600060dd54136131f65760405162461bcd60e51b815260206004820152601860248201527f4e4f545f554e4445525f434f4c4c41544552414c495a45440000000000000000604482015260640161105a565b600061320160355490565b9050670de0b6b3a76400008160dd5461321a9190615acc565b6132249190615af9565b8211156132645760405162461bcd60e51b815260206004820152600e60248201526d414d4f554e545f544f4f5f42494760901b604482015260640161105a565b6201518060ec54426132769190615989565b1061328557600060eb554260ec555b600061328f6113f5565b61329e6402540be40085615acc565b6132a89190615af9565b90508060eb60008282546132bc919061594e565b925050819055506064670de0b6b3a764000060c960009054906101000a90046001600160a01b03166001600160a01b03166318160ddd6040518163ffffffff1660e01b8152600401602060405180830381865afa158015613321573d6000803e3d6000fd5b505050506040513d601f19601f8201168201806040525081019061334591906158bb565b60d9546133529190615acc565b61335c9190615af9565b6133669190615af9565b60eb5411156133af5760405162461bcd60e51b8152602060048201526015602482015274105093d59157d253919310551253d397d312535255605a1b604482015260640161105a565b336133c36133bb61461c565b82308761484a565b6000836133d8670de0b6b3a764000087615acc565b6133e29190615af9565b90508060de60008282546133f69190615aac565b925050819055508060dd600082825461340f9190615aac565b9091555061341d90506141cd565b8460f5600082825461342f919061594e565b925050819055508260f66000828254613448919061594e565b909155505060c9546040516340c10f1960e01b81526001600160a01b03848116600483015260248201869052909116906340c10f1990604401600060405180830381600087803b15801561349b57600080fd5b505af11580156134af573d6000803e3d6000fd5b505060408051888152602081018790526001600160a01b03861693507f19aee2c21e4d63823896cb2a77a3e61197dda70b1043a55fca38aa8d75c0edd392500160405180910390a25050505050565b600061130561169e836138ab565b60cb546001600160a01b0316336001600160a01b03161461353f5760405162461bcd60e51b815260040161105a90615b30565b613552670de0b6b3a76400006019615acc565b8111156135715760405162461bcd60e51b815260040161105a90615d85565b60d881905560408051818152600b918101919091526a06c6f737365734275726e560ac1b606082015260208101829052600080516020615e3b833981519152906080016115d6565b60cb546001600160a01b0316336001600160a01b0316146135ec5760405162461bcd60e51b815260040161105a90615b30565b6135ff670de0b6b3a76400006064615acc565b81101561363a5760405162461bcd60e51b81526020600482015260096024820152682122a627abafa6a4a760b91b604482015260640161105a565b60db819055604080518181526015918101919091527406d6178446973636f756e745468726573686f6c645605c1b606082015260208101829052600080516020615e3b833981519152906080016115d6565b60006301e13380826136a7670de0b6b3a76400006064615acc565b8511156137095760db548511156136bf57600061370d565b6136d2670de0b6b3a76400006064615acc565b60db546136df9190615989565b8560db546136ed9190615989565b60da546136fa9190615acc565b6137049190615af9565b61370d565b60da545b6137179190615acc565b6116679190615af9565b61372961454e565b6001600160a01b03811661374f5760405162461bcd60e51b815260040161105a90615b0d565b60cd80546001600160a01b0319166001600160a01b03831690811790915560408051818152600a91810191909152693837362430b7323632b960b11b60608201526020810191909152600080516020615e5b833981519152906080016115d6565b6137b861454e565b60d381905560408051818152601291810191909152716d61784163634f70656e506e6c44656c746160701b606082015260208101829052600080516020615e3b833981519152906080016115d6565b6000806138126130f7565b9050600061382d82611cb5670de0b6b3a76400006064615acc565b6138379083615989565b60d65490915081116138845760d55481116138705760d260008154811061386057613860615c34565b90600052602060002001546138a4565b60d260018154811061386057613860615c34565b60d260028154811061389857613898615c34565b90600052602060002001545b9250505090565b60ce5460408051632e3fbb9960e21b815290516000926001600160a01b03169163b8feee649160048083019260209291908290030181865afa1580156138f5573d6000803e3d6000fd5b505050506040513d601f19601f8201168201806040525081019061391991906158bb565b15613925576000611305565b6001600160a01b038216600090815260e76020908152604080832060e254845290915290205461130590600161395a60355490565b611cb59190615989565b6001600160a01b03918216600090815260346020908152604080832093909416825291909152205490565b60cb546001600160a01b0316336001600160a01b0316146139c25760405162461bcd60e51b815260040161105a90615b30565b6001600160a01b0381166139e85760405162461bcd60e51b815260040161105a90615b0d565b6097546001600160a01b03828116911614801590613a14575060cb546001600160a01b03828116911614155b613a305760405162461bcd60e51b815260040161105a90615b56565b60cc80546001600160a01b0319166001600160a01b038316908117909155604080518181526005918101919091526430b236b4b760d91b60608201526020810191909152600080516020615e5b833981519152906080016115d6565b6000670de0b6b3a7640000613aa060355490565b611530613027565b60cd5433906001600160a01b03168114613b045760405162461bcd60e51b815260206004820152601860248201527f4f4e4c595f54524144494e475f504e4c5f48414e444c45520000000000000000604482015260640161105a565b6000613b25670de0b6b3a7640000613b1b60355490565b869190600161416e565b90508060de6000828254613b399190615961565b90915550613b479050613027565b60de541315613b8c5760405162461bcd60e51b81526020600482015260116024820152704e4f545f454e4f5547485f41535345545360781b604482015260640161105a565b613b94613d39565b8060e06000828254613ba69190615961565b909155505060d45460e0541315613bef5760405162461bcd60e51b815260206004820152600d60248201526c13505617d11052531657d41393609a1b604482015260640161105a565b8360f06000828254613c019190615961565b925050819055508360ee6000828254613c1a9190615961565b90915550613c28905061133a565b613c306118eb565b613c42613c3b61461c565b8486614630565b826001600160a01b0316826001600160a01b03167f17ffe64fb2212f31d60284d6471e06abb7db8d66f0a60f9b884b29f1597d05da86604051613c8791815260200190565b60405180910390a350505050565b613cd76040518060c0016040528060006001600160a01b0316815260200160008152602001600081526020016000815260200160008152602001600081525090565b50600090815260e96020908152604091829020825160c08101845281546001600160a01b03168152600182015492810192909252600281015492820192909252600382015460608201526004820154608082015260059091015460a082015290565b6201518060e15442613d4b9190615989565b1061198a57600060e08190554260e1556040517fa047de172c12fcf40e0ff45a86ac45befb232ae644862699ef140a8c5f763b419190a1565b600083600060dc5411613da95760405162461bcd60e51b815260040161105a90615b7b565b60008111613dc95760405162461bcd60e51b815260040161105a90615b9c565b83600060da5411613e115760405162461bcd60e51b81526020600482015260126024820152711393d7d050d512559157d11254d0d3d5539560721b604482015260640161105a565b60d154811015613e5d5760405162461bcd60e51b81526020600482015260176024820152762122a627abafa6a4a72fa627a1a5afa22aa920aa24a7a760491b604482015260640161105a565b6301e13380811115613eab5760405162461bcd60e51b815260206004820152601760248201527620a127ab22afa6a0ac2fa627a1a5afa22aa920aa24a7a760491b604482015260640161105a565b6000613ec0670de0b6b3a76400006064615acc565b613ed1613ecb6130f7565b8861368c565b613ee4670de0b6b3a76400006064615acc565b613eee919061594e565b613ef89089615acc565b613f029190615af9565b9050613f0d85611690565b811115613f545760405162461bcd60e51b81526020600482015260156024820152740888aa09ea692a8be9a9ea48abea890829cbe9a82b605b1b604482015260640161105a565b612d058188613f6284613197565b89896148e7565b613f7161454e565b6001600160a01b038116613fd65760405162461bcd60e51b815260206004820152602660248201527f4f776e61626c653a206e6577206f776e657220697320746865207a65726f206160448201526564647265737360d01b606482015260840161105a565b60cb546001600160a01b03828116911614801590614002575060cc546001600160a01b03828116911614155b61401e5760405162461bcd60e51b815260040161105a90615b56565b6113f2816147e2565b61402f61454e565b80516020820151116140725760405162461bcd60e51b815260206004820152600c60248201526b57524f4e475f56414c55455360a01b604482015260640161105a565b61407f60d58260026151d0565b507f8472b50e25b52d8de564f9719bd793b18d83cf59ce4d309e211fb6a4fdc14811816040516115d69190615da8565b60cb546001600160a01b0316336001600160a01b0316146140e25760405162461bcd60e51b815260040161105a90615b30565b6140f5670de0b6b3a76400006032615acc565b8111156141145760405162461bcd60e51b815260040161105a90615d85565b60d7819055604080518181526017918101919091527f6d6178537570706c79496e6372656173654461696c7950000000000000000000606082015260208101829052600080516020615e3b833981519152906080016115d6565b60008061417c868686614b3f565b9050600183600281111561419257614192615dd9565b1480156141af5750600084806141aa576141aa615ae3565b868809115b156141c2576141bf60018261594e565b90505b90505b949350505050565b600060dd54136141de5760006141e2565b60dd545b6141ea613027565b6141f49190615989565b60dc8190556040519081527f547c25b7a5677a006ff044a0e4b5e699598339825e7b42d3dc645117ceee805090602001611981565b6001600160a01b03831661428d5760405162461bcd60e51b815260206004820152602560248201527f45524332303a207472616e736665722066726f6d20746865207a65726f206164604482015264647265737360d81b606482015260840161105a565b6001600160a01b0382166142ef5760405162461bcd60e51b815260206004820152602360248201527f45524332303a207472616e7366657220746f20746865207a65726f206164647260448201526265737360e81b606482015260840161105a565b6001600160a01b038316600090815260336020526040902054818110156143675760405162461bcd60e51b815260206004820152602660248201527f45524332303a207472616e7366657220616d6f756e7420657863656564732062604482015265616c616e636560d01b606482015260840161105a565b6001600160a01b0380851660008181526033602052604080822086860390559286168082529083902080548601905591517fddf252ad1be2c89b69c2b068fc378daa952ba7f163c4a11628f55a4df523b3ef90613c879086815260200190565b50505050565b6000600019831480156143ea5750670de0b6b3a764000060dc5410155b156143f6575081611305565b60dc54611667908490670de0b6b3a76400008561416e565b6001600160a01b0383166144705760405162461bcd60e51b8152602060048201526024808201527f45524332303a20617070726f76652066726f6d20746865207a65726f206164646044820152637265737360e01b606482015260840161105a565b6001600160a01b0382166144d15760405162461bcd60e51b815260206004820152602260248201527f45524332303a20617070726f766520746f20746865207a65726f206164647265604482015261737360f01b606482015260840161105a565b6001600160a01b0383811660008181526034602090815260408083209487168084529482529182902085905590518481527f8c5be1e5ebec7d5bd14f71427d1e84f3dd0314c0f7b2291e5b200ac8c7c3b925910160405180910390a3505050565b60dc54600090611667908490670de0b6b3a7640000908561416e565b6097546001600160a01b0316331461198a5760405162461bcd60e51b815260206004820181905260248201527f4f776e61626c653a2063616c6c6572206973206e6f7420746865206f776e6572604482015260640161105a565b60006145b48484613964565b905060001981146143c7578181101561460f5760405162461bcd60e51b815260206004820152601d60248201527f45524332303a20696e73756666696369656e7420616c6c6f77616e6365000000604482015260640161105a565b6143c7848484840361440e565b6000610ea36065546001600160a01b031690565b6040516001600160a01b03831660248201526044810182905261469390849063a9059cbb60e01b906064015b60408051601f198184030181529190526020810180516001600160e01b03166001600160e01b031990931692909217909152614bee565b505050565b60006146a360355490565b9050600060de5412156146ee57816146c4576146bf8482615989565b6146ce565b6146ce848261594e565b8160de546146dc9190615bbd565b6146e69190615bed565b60de55614743565b600060de541315614743578161470657600019614709565b60015b8160f054866147189190615bbd565b6147229190615bed565b61472c9190615bbd565b60f0600082825461473d9190615961565b90915550505b8161475b578260ed546147569190615989565b614769565b8260ed54614769919061594e565b60ed5550505050565b60655461478a906001600160a01b031685308561484a565b6147948382614cc0565b826001600160a01b0316846001600160a01b03167fdcbc1c05240f31ff3ad067ef1ee35ce4997762752e3a095284754544f4c709d78484604051613c87929190918252602082015260400190565b609780546001600160a01b038381166001600160a01b0319831681179093556040519116919082907f8be0079c531659141344cd1fd0a4f28419497f9722a3daafe3b4186f6b6457e090600090a35050565b60008183106148435781611667565b5090919050565b6040516001600160a01b03808516602483015283166044820152606481018290526143c79085906323b872dd60e01b9060840161465c565b600054610100900460ff166148a95760405162461bcd60e51b815260040161105a90615def565b6148b38282614d81565b5050565b600054610100900460ff166148de5760405162461bcd60e51b815260040161105a90615def565b6113f281614dc1565b60008486116149265760405162461bcd60e51b815260206004820152600b60248201526a1393d7d11254d0d3d5539560aa1b604482015260640161105a565b600060e86000815461493790615c1b565b91829055509050600061494a8789615989565b600083815260e96020526040902080546001600160a01b0319166001600160a01b0387161781556001808201899055600282018a90556003820183905542600483015560058201889055919250906149a59088908a90614698565b336149b281308b8b614772565b8260f260008282546149c4919061594e565b925050819055508260f160008282546149dd919061594e565b909155505060ca546040516340c10f1960e01b81526001600160a01b03888116600483015260248201879052909116906340c10f1990604401600060405180830381600087803b158015614a3057600080fd5b505af1158015614a44573d6000803e3d6000fd5b505083546040516001600160a01b03918216935090841691507f5d26cdffbd8401ba2a961d2094f7f008ee7bd735ac02a949721ee0fd0f0d5afc90614a8c908890879061599c565b60405180910390a3509198975050505050505050565b826001600160a01b0316856001600160a01b031614614ac657614ac68386836145a8565b614ad08382614e46565b606554614ae7906001600160a01b03168584614630565b826001600160a01b0316846001600160a01b0316866001600160a01b03167ffbde797d201c681b91056529119e0b02407c7bb96a4a2c75c01fc9667232c8db858560405161236d929190918252602082015260400190565b6000808060001985870985870292508281108382030391505080600003614b7957838281614b6f57614b6f615ae3565b0492505050611667565b808411614b8557600080fd5b60008486880960026001871981018816978890046003810283188082028403028082028403028082028403028082028403028082028403029081029092039091026000889003889004909101858311909403939093029303949094049190911702949350505050565b6000614c43826040518060400160405280602081526020017f5361666545524332303a206c6f772d6c6576656c2063616c6c206661696c6564815250856001600160a01b0316614f7a9092919063ffffffff16565b8051909150156146935780806020019051810190614c6191906158f1565b6146935760405162461bcd60e51b815260206004820152602a60248201527f5361666545524332303a204552433230206f7065726174696f6e20646964206e6044820152691bdd081cdd58d8d9595960b21b606482015260840161105a565b6001600160a01b038216614d165760405162461bcd60e51b815260206004820152601f60248201527f45524332303a206d696e7420746f20746865207a65726f206164647265737300604482015260640161105a565b8060356000828254614d28919061594e565b90915550506001600160a01b0382166000818152603360209081526040808320805486019055518481527fddf252ad1be2c89b69c2b068fc378daa952ba7f163c4a11628f55a4df523b3ef910160405180910390a35050565b600054610100900460ff16614da85760405162461bcd60e51b815260040161105a90615def565b6036614db48382615c98565b5060376146938282615c98565b600054610100900460ff16614de85760405162461bcd60e51b815260040161105a90615def565b600080614df483614f89565b9150915081614e04576012614e06565b805b606580546001600160a01b039095166001600160a01b031960ff93909316600160a01b02929092166001600160a81b031990951694909417179092555050565b6001600160a01b038216614ea65760405162461bcd60e51b815260206004820152602160248201527f45524332303a206275726e2066726f6d20746865207a65726f206164647265736044820152607360f81b606482015260840161105a565b6001600160a01b03821660009081526033602052604090205481811015614f1a5760405162461bcd60e51b815260206004820152602260248201527f45524332303a206275726e20616d6f756e7420657863656564732062616c616e604482015261636560f01b606482015260840161105a565b6001600160a01b03831660008181526033602090815260408083208686039055603580548790039055518581529192917fddf252ad1be2c89b69c2b068fc378daa952ba7f163c4a11628f55a4df523b3ef910160405180910390a3505050565b60606141c58484600085615067565b60408051600481526024810182526020810180516001600160e01b031663313ce56760e01b17905290516000918291829182916001600160a01b03871691614fd091615a1a565b6000604051808303816000865af19150503d806000811461500d576040519150601f19603f3d011682016040523d82523d6000602084013e615012565b606091505b509150915081801561502657506020815110155b1561505a5760008180602001905181019061504191906158bb565b905060ff8111615058576001969095509350505050565b505b5060009485945092505050565b6060824710156150c85760405162461bcd60e51b815260206004820152602660248201527f416464726573733a20696e73756666696369656e742062616c616e636520666f6044820152651c8818d85b1b60d21b606482015260840161105a565b600080866001600160a01b031685876040516150e49190615a1a565b60006040518083038185875af1925050503d8060008114615121576040519150601f19603f3d011682016040523d82523d6000602084013e615126565b606091505b5091509150612d0587838387606083156151a157825160000361519a576001600160a01b0385163b61519a5760405162461bcd60e51b815260206004820152601d60248201527f416464726573733a2063616c6c20746f206e6f6e2d636f6e7472616374000000604482015260640161105a565b50816141c5565b6141c583838151156151b65781518083602001fd5b8060405162461bcd60e51b815260040161105a9190615308565b82600281019282156151fe579160200282015b828111156151fe5782518255916020019190600101906151e3565b5061520a92915061524e565b5090565b8280548282559060005260206000209081019282156151fe579160200282015b828111156151fe578251829060ff1690559160200191906001019061522e565b5b8082111561520a576000815560010161524f565b6001600160a01b03811681146113f257600080fd5b803561528381615263565b919050565b6000806040838503121561529b57600080fd5b8235915060208301356152ad81615263565b809150509250929050565b60005b838110156152d35781810151838201526020016152bb565b50506000910152565b600081518084526152f48160208601602086016152b8565b601f01601f19169290920160200192915050565b60208152600061166760208301846152dc565b60006020828403121561532d57600080fd5b5035919050565b6000806040838503121561534757600080fd5b823561535281615263565b946020939093013593505050565b60006020828403121561537257600080fd5b813561166781615263565b60008060006060848603121561539257600080fd5b833561539d81615263565b925060208401356153ad81615263565b929592945050506040919091013590565b6001600160a01b03831681526040602082018190526000906141c5908301846152dc565b600080604083850312156153f557600080fd5b50508035926020909101359150565b60008060006060848603121561541957600080fd5b8335925060208401356153ad81615263565b634e487b7160e01b600052604160045260246000fd5b604051610120810167ffffffffffffffff811182821017156154655761546561542b565b60405290565b600067ffffffffffffffff808411156154865761548661542b565b604051601f8501601f19908116603f011681019082821181831017156154ae576154ae61542b565b816040528093508581528686860111156154c757600080fd5b858560208301376000602087830101525050509392505050565b600082601f8301126154f257600080fd5b6116678383356020850161546b565b60006040828403121561551357600080fd5b6040516040810167ffffffffffffffff82821081831117156155375761553761542b565b816040528293508435915061554b82615263565b9082526020840135908082111561556157600080fd5b508301601f8101851361557357600080fd5b6155828582356020840161546b565b6020830152505092915050565b600061012082840312156155a257600080fd5b6155aa615441565b90506155b582615278565b81526155c360208301615278565b60208201526155d460408301615278565b60408201526155e560608301615278565b60608201526155f660808301615278565b608082015261560760a08301615278565b60a082015261561860c08301615278565b60c082015261562960e08301615278565b60e08201526101008083013567ffffffffffffffff81111561564a57600080fd5b61565685828601615501565b82840152505092915050565b600082601f83011261567357600080fd5b6040516040810181811067ffffffffffffffff821117156156965761569661542b565b80604052508060408401858111156156ad57600080fd5b845b818110156156c75780358352602092830192016156af565b509195945050505050565b6000806000806000806000806000806000806101a08d8f0312156156f557600080fd5b67ffffffffffffffff8d35111561570b57600080fd5b6157188e8e358f016154e1565b9b5067ffffffffffffffff60208e0135111561573357600080fd5b6157438e60208f01358f016154e1565b9a5067ffffffffffffffff60408e0135111561575e57600080fd5b61576e8e60408f01358f0161558f565b995060608d0135985060808d0135975060a08d013596506157928e60c08f01615662565b95506101008d013594506101208d013593506101408d013592506101608d013591506101808d013590509295989b509295989b509295989b565b6000806000606084860312156157e157600080fd5b833592506020840135915060408401356157fa81615263565b809150509250925092565b60008060006060848603121561581a57600080fd5b83359250602084013561582c81615263565b915060408401356157fa81615263565b60006020828403121561584e57600080fd5b813567ffffffffffffffff81111561586557600080fd5b6141c584828501615501565b6000806040838503121561588457600080fd5b823561588f81615263565b915060208301356152ad81615263565b6000604082840312156158b157600080fd5b6116678383615662565b6000602082840312156158cd57600080fd5b5051919050565b6000602082840312156158e657600080fd5b815161166781615263565b60006020828403121561590357600080fd5b8151801515811461166757600080fd5b6020808252600b908201526a1393d517d0531313d5d15160aa1b604082015260600190565b634e487b7160e01b600052601160045260246000fd5b8082018082111561130557611305615938565b808201828112600083128015821682158216171561598157615981615938565b505092915050565b8181038181111561130557611305615938565b91825280546001600160a01b03166020830152600181015460408301526002810154606083015260038101546080830152600481015460a08301526005015460c082015260e00190565b600181811c908216806159fa57607f821691505b602082108103612b1d57634e487b7160e01b600052602260045260246000fd5b60008251615a2c8184602087016152b8565b9190910192915050565b6000808354615a44816159e6565b60018281168015615a5c5760018114615a7157615aa0565b60ff1984168752821515830287019450615aa0565b8760005260208060002060005b85811015615a975781548a820152908401908201615a7e565b50505082870194505b50929695505050505050565b8181036000831280158383131683831282161715611bc257611bc2615938565b808202811582820484141761130557611305615938565b634e487b7160e01b600052601260045260246000fd5b600082615b0857615b08615ae3565b500490565b6020808252600990820152680414444524553535f360bc1b604082015260600190565b6020808252600c908201526b27a7262cafa6a0a720a3a2a960a11b604082015260600190565b6020808252600b908201526a57524f4e475f56414c554560a81b604082015260600190565b602080825260079082015266050524943455f360cc1b604082015260600190565b602080825260079082015266056414c55455f360cc1b604082015260600190565b80820260008212600160ff1b84141615615bd957615bd9615938565b818105831482151761130557611305615938565b600082615bfc57615bfc615ae3565b600160ff1b821460001984141615615c1657615c16615938565b500590565b600060018201615c2d57615c2d615938565b5060010190565b634e487b7160e01b600052603260045260246000fd5b601f82111561469357600081815260208120601f850160051c81016020861015615c715750805b601f850160051c820191505b81811015615c9057828155600101615c7d565b505050505050565b815167ffffffffffffffff811115615cb257615cb261542b565b615cc681615cc084546159e6565b84615c4a565b602080601f831160018114615cfb5760008415615ce35750858301515b600019600386901b1c1916600185901b178555615c90565b600085815260208120601f198616915b82811015615d2a57888601518255948401946001909101908401615d0b565b5085821015615d485787850151600019600388901b60f8161c191681555b5050505050600190811b01905550565b602080825282516001600160a01b0316828201528201516040808301526000906141c560608401826152dc565b602080825260099082015268082849eac8abe9a82b60bb1b604082015260600190565b60408101818360005b6002811015615dd0578151835260209283019290910190600101615db1565b50505092915050565b634e487b7160e01b600052602160045260246000fd5b6020808252602b908201527f496e697469616c697a61626c653a20636f6e7472616374206973206e6f74206960408201526a6e697469616c697a696e6760a81b60608201526080019056fe127735ae9d047cae55da37db2c8ee184c735aacd68cef068d4e70be6a41661d960f89fdb372abe626eac485ef96b2a09f1cfbd7f225dd1e2b491a2b4069c2376a26469706673582212202401a71cfda54f6fdf9101c9e0fd0d8a2328d60d2f7c2467618c1bd55c8000ee64736f6c63430008110033",
  "immutableReferences": {},
  "source": "// SPDX-License-Identifier: MIT\nimport '@openzeppelin/contracts-upgradeable/token/ERC20/ERC20Upgradeable.sol';\nimport '@openzeppelin/contracts-upgradeable/token/ERC20/extensions/ERC4626Upgradeable.sol';\nimport '@openzeppelin/contracts-upgradeable/utils/math/MathUpgradeable.sol';\nimport '@openzeppelin/contracts-upgradeable/access/OwnableUpgradeable.sol';\n\nimport '../interfaces/IGToken.sol';\nimport '../interfaces/IGnsToken.sol';\nimport '../interfaces/INft.sol';\nimport '../interfaces/IOpenTradesPnlFeed.sol';\n\npragma solidity 0.8.17;\n\ncontract GToken is ERC20Upgradeable, ERC4626Upgradeable, OwnableUpgradeable, IGToken {\n    using MathUpgradeable for uint;\n\n    // Contracts & Addresses (constant)\n    address public gnsToken;\n    INft public lockedDepositNft;\n\n    // Contracts & Addresses (adjustable)\n    address public manager; // 3-day timelock contract\n    address public admin;   // bypasses timelock, access to emergency functions\n\n    address public pnlHandler;\n    IOpenTradesPnlFeed public openTradesPnlFeed;\n    GnsPriceProvider public gnsPriceProvider;\n\n    struct GnsPriceProvider {\n        address addr;\n        bytes signature;\n    }\n\n    // Parameters (constant)\n    uint constant PRECISION = 1e18;                             // 18 decimals (acc values & price)\n    uint constant GNS_PRECISION = 1e10;                         // 10 decimals (gns/asset oracle)\n    uint constant MIN_DAILY_ACC_PNL_DELTA = PRECISION / 10;     // 0.1 (price delta)\n    uint constant MAX_SUPPLY_INCREASE_DAILY_P = 50 * PRECISION; // 50% / day (when under collat)\n    uint constant MAX_LOSSES_BURN_P = 25 * PRECISION;           // 25% of all losses\n    uint constant MAX_GNS_SUPPLY_MINT_DAILY_P = PRECISION / 20; // 0.05% / day (18.25% / yr max)\n    uint constant MAX_DISCOUNT_P = 10 * PRECISION;              // 10%\n    uint public MIN_LOCK_DURATION;                              // min locked asset deposit duration  \n    uint constant MAX_LOCK_DURATION = 365 days;                 // max locked asset deposit duration\n    uint[] WITHDRAW_EPOCHS_LOCKS;                               // epochs withdraw locks at over collat thresholds\n \n    // Parameters (adjustable)\n    uint public maxAccOpenPnlDelta;         // PRECISION (max price delta on new epochs from open pnl)\n    uint public maxDailyAccPnlDelta;        // PRECISION (max daily price delta from closed pnl)\n    uint[2] public withdrawLockThresholdsP; // PRECISION (% of over collat, used with WITHDRAW_EPOCHS_LOCKS)\n    uint public maxSupplyIncreaseDailyP;    // PRECISION (% per day, when under collat)\n    uint public lossesBurnP;                // PRECISION (% of all losses)\n    uint public maxGnsSupplyMintDailyP;     // PRECISION (% of gns supply)\n    uint public maxDiscountP;               // PRECISION (%, maximum discount for locked deposits)\n    uint public maxDiscountThresholdP;      // PRECISION (maximum collat %, for locked deposits)\n\n    // Price state\n    uint public shareToAssetsPrice; // PRECISION\n    int public accPnlPerTokenUsed;  // PRECISION (snapshot of accPnlPerToken)\n    int public accPnlPerToken;      // PRECISION (updated in real-time)\n    uint public accRewardsPerToken; // PRECISION\n    \n    // Closed Pnl state\n    int public dailyAccPnlDelta;           // PRECISION\n    uint public lastDailyAccPnlDeltaReset; // timestamp\n\n    // Epochs state (withdrawals)\n    uint public currentEpoch;                // global id\n    uint public currentEpochStart;           // timestamp\n    uint public currentEpochPositiveOpenPnl; // 1e18\n\n    // Deposit / Withdraw state\n    uint public currentMaxSupply;    // 1e18\n    uint public lastMaxSupplyUpdate; // timestamp\n    mapping(address => mapping(uint => uint)) public withdrawRequests; // owner => unlock epoch => shares\n\n    // Locked deposits state\n    uint public lockedDepositsCount; // global id\n    mapping (uint => LockedDeposit) public lockedDeposits;\n\n    // Deplete / Refill state\n    uint public assetsToDeplete;         // 1e18\n    uint public dailyMintedGns;          // 1e18\n    uint public lastDailyMintedGnsReset; // timestamp\n\n    // Statistics (not used for contract logic)\n    uint public totalDeposited;       // 1e18 (assets)\n    int public totalClosedPnl;        // 1e18 (assets)\n    uint public totalRewards;         // 1e18 (assets)\n    int public totalLiability;        // 1e18 (assets)\n    uint public totalLockedDiscounts; // 1e18 (assets)\n    uint public totalDiscounts;       // 1e18 (assets)\n    uint public totalDepleted;        // 1e18 (assets)\n    uint public totalDepletedGns;     // 1e18 (gns)\n    uint public totalRefilled;        // 1e18 (assets)\n    uint public totalRefilledGns;     // 1e18 (gns)\n\n    // Events\n    event AddressParamUpdated(string name, address newValue);\n    event GnsPriceProviderUpdated(GnsPriceProvider newValue);\n    event NumberParamUpdated(string name, uint newValue);\n    event WithdrawLockThresholdsPUpdated(uint[2] newValue);\n\n    event CurrentMaxSupplyUpdated(uint newValue);\n    event DailyAccPnlDeltaReset();\n    event ShareToAssetsPriceUpdated(uint newValue);\n    event OpenTradesPnlFeedCallFailed();\n\n    event WithdrawRequested(\n        address indexed sender,\n        address indexed owner,\n        uint shares,\n        uint currEpoch,\n        uint indexed unlockEpoch\n    );\n    event WithdrawCanceled(\n        address indexed sender,\n        address indexed owner,\n        uint shares,\n        uint currEpoch,\n        uint indexed unlockEpoch\n    );\n\n    event DepositLocked(\n        address indexed sender,\n        address indexed owner,\n        uint depositId,\n        LockedDeposit d\n    );\n    event DepositUnlocked(\n        address indexed sender,\n        address indexed receiver,\n        address indexed owner,\n        uint depositId,\n        LockedDeposit d\n    );\n\n    event RewardDistributed(address indexed sender, uint assets);\n    \n    event AssetsSent(address indexed sender, address indexed receiver, uint assets);\n    event AssetsReceived(address indexed sender, address indexed user, uint assets, uint assetsLessDeplete);\n    \n    event Depleted(address indexed sender, uint assets, uint amountGns);\n    event Refilled(address indexed sender, uint assets, uint amountGns);\n    \n    event AccPnlPerTokenUsedUpdated(\n        address indexed sender,\n        uint indexed newEpoch,\n        uint prevPositiveOpenPnl,\n        uint newPositiveOpenPnl,\n        uint newEpochPositiveOpenPnl,\n        int newAccPnlPerTokenUsed\n    );\n\n    // Prevent stack too deep error\n    struct ContractAddresses{\n        address asset;\n        address owner;   // 2-week timelock contract\n        address manager; // 3-day timelock contract\n        address admin;   // bypasses timelock, access to emergency functions\n        address gnsToken;\n        address lockedDepositNft;\n        address pnlHandler;\n        address openTradesPnlFeed;\n        GnsPriceProvider gnsPriceProvider;\n    }\n\n    // Initializer function called when this contract is deployed\n    function initialize(\n        string memory _name,\n        string memory _symbol,\n        ContractAddresses memory _contractAddresses,\n        uint _MIN_LOCK_DURATION,\n        uint _maxAccOpenPnlDelta,\n        uint _maxDailyAccPnlDelta,\n        uint[2] memory _withdrawLockThresholdsP,\n        uint _maxSupplyIncreaseDailyP,\n        uint _lossesBurnP,\n        uint _maxGnsSupplyMintDailyP,\n        uint _maxDiscountP,\n        uint _maxDiscountThresholdP\n    ) external initializer {\n\n        require(_contractAddresses.asset != address(0)\n            && _contractAddresses.owner != address(0)\n            && _contractAddresses.manager != address(0)\n            && _contractAddresses.admin != address(0)\n            && _contractAddresses.owner != _contractAddresses.manager\n            && _contractAddresses.manager != _contractAddresses.admin\n            && _contractAddresses.gnsToken != address(0)\n            && _contractAddresses.lockedDepositNft != address(0)\n            && _contractAddresses.pnlHandler != address(0)\n            && _contractAddresses.openTradesPnlFeed != address(0)\n            && _contractAddresses.gnsPriceProvider.addr != address(0)\n            && _contractAddresses.gnsPriceProvider.signature.length > 0\n            && _maxDailyAccPnlDelta >= MIN_DAILY_ACC_PNL_DELTA\n            && _withdrawLockThresholdsP[1] > _withdrawLockThresholdsP[0]\n            && _maxSupplyIncreaseDailyP <= MAX_SUPPLY_INCREASE_DAILY_P\n            && _lossesBurnP <= MAX_LOSSES_BURN_P\n            && _maxGnsSupplyMintDailyP <= MAX_GNS_SUPPLY_MINT_DAILY_P\n            && _maxDiscountP <= MAX_DISCOUNT_P\n            && _maxDiscountThresholdP >= 100 * PRECISION, \"WRONG_PARAMS\");\n\n        __ERC20_init(_name, _symbol);\n        __ERC4626_init(IERC20MetadataUpgradeable(_contractAddresses.asset));\n        _transferOwnership(_contractAddresses.owner);\n        \n        gnsToken = _contractAddresses.gnsToken;\n        lockedDepositNft = INft(_contractAddresses.lockedDepositNft);\n        manager = _contractAddresses.manager;\n        admin = _contractAddresses.admin;\n        pnlHandler = _contractAddresses.pnlHandler;\n        openTradesPnlFeed = IOpenTradesPnlFeed(_contractAddresses.openTradesPnlFeed);\n        gnsPriceProvider = _contractAddresses.gnsPriceProvider;\n\n        MIN_LOCK_DURATION = _MIN_LOCK_DURATION;\n\n        maxAccOpenPnlDelta = _maxAccOpenPnlDelta;\n        maxDailyAccPnlDelta = _maxDailyAccPnlDelta;\n        withdrawLockThresholdsP = _withdrawLockThresholdsP;\n        maxSupplyIncreaseDailyP = _maxSupplyIncreaseDailyP;\n        lossesBurnP = _lossesBurnP;\n        maxGnsSupplyMintDailyP = _maxGnsSupplyMintDailyP;\n        maxDiscountP = _maxDiscountP;\n        maxDiscountThresholdP = _maxDiscountThresholdP;\n\n        shareToAssetsPrice = PRECISION;\n        currentEpoch = 1;\n        currentEpochStart = block.timestamp;\n        WITHDRAW_EPOCHS_LOCKS = [3, 2, 1];\n    }\n\n    // Modifiers\n    modifier onlyManager() {\n        require(_msgSender() == manager, \"ONLY_MANAGER\");\n        _;\n    }\n\n    modifier checks(uint assetsOrShares) {\n        require(shareToAssetsPrice > 0, \"PRICE_0\");\n        require(assetsOrShares > 0, \"VALUE_0\");\n        _;\n    }\n\n    modifier validDiscount(uint lockDuration) {\n        require(maxDiscountP > 0, \"NO_ACTIVE_DISCOUNT\");\n        require(lockDuration >= MIN_LOCK_DURATION, \"BELOW_MIN_LOCK_DURATION\");\n        require(lockDuration <= MAX_LOCK_DURATION, \"ABOVE_MAX_LOCK_DURATION\");\n        _;\n    }\n\n    // Manage addresses\n    function transferOwnership(address newOwner) public override onlyOwner {\n        require(newOwner != address(0), \"Ownable: new owner is the zero address\");\n        require(newOwner != manager && newOwner != admin, \"WRONG_VALUE\");\n        _transferOwnership(newOwner);\n    }\n\n    function updateManager(address newValue) external onlyOwner{\n        require(newValue != address(0), \"ADDRESS_0\");\n        require(newValue != owner() && newValue != admin, \"WRONG_VALUE\");\n        manager = newValue;\n        emit AddressParamUpdated(\"manager\", newValue);\n    }\n\n    function updateAdmin(address newValue) external onlyManager{\n        require(newValue != address(0), \"ADDRESS_0\");\n        require(newValue != owner() && newValue != manager, \"WRONG_VALUE\");\n        admin = newValue;\n        emit AddressParamUpdated(\"admin\", newValue);\n    }\n\n    function updatePnlHandler(address newValue) external onlyOwner{\n        require(newValue != address(0), \"ADDRESS_0\");\n        pnlHandler = newValue;\n        emit AddressParamUpdated(\"pnlHandler\", newValue);\n    }\n\n    function updateGnsPriceProvider(GnsPriceProvider memory newValue) external onlyManager{\n        require(newValue.addr != address(0), \"ADDRESS_0\");\n        require(newValue.signature.length > 0, \"BYTES_0\");\n        gnsPriceProvider = newValue;\n        emit GnsPriceProviderUpdated(newValue);\n    }\n\n    function updateOpenTradesPnlFeed(address newValue) external onlyOwner{\n        require(newValue != address(0), \"ADDRESS_0\");\n        openTradesPnlFeed = IOpenTradesPnlFeed(newValue);\n        emit AddressParamUpdated(\"openTradesPnlFeed\", newValue);\n    }\n\n    // Manage parameters\n    function updateMaxAccOpenPnlDelta(uint newValue) external onlyOwner{\n        maxAccOpenPnlDelta = newValue;\n        emit NumberParamUpdated(\"maxAccOpenPnlDelta\", newValue);\n    }\n\n    function updateMaxDailyAccPnlDelta(uint newValue) external onlyManager{\n        require(newValue >= MIN_DAILY_ACC_PNL_DELTA, \"BELOW_MIN\");\n        maxDailyAccPnlDelta = newValue;\n        emit NumberParamUpdated(\"maxDailyAccPnlDelta\", newValue);\n    }\n\n    function updateWithdrawLockThresholdsP(uint[2] memory newValue) external onlyOwner{\n        require(newValue[1] > newValue[0], \"WRONG_VALUES\");\n        withdrawLockThresholdsP = newValue;\n        emit WithdrawLockThresholdsPUpdated(newValue);\n    }\n\n    function updateMaxSupplyIncreaseDailyP(uint newValue) external onlyManager{\n        require(newValue <= MAX_SUPPLY_INCREASE_DAILY_P, \"ABOVE_MAX\");\n        maxSupplyIncreaseDailyP = newValue;\n        emit NumberParamUpdated(\"maxSupplyIncreaseDailyP\", newValue);\n    }\n\n    function updateLossesBurnP(uint newValue) external onlyManager{\n        require(newValue <= MAX_LOSSES_BURN_P, \"ABOVE_MAX\");\n        lossesBurnP = newValue;\n        emit NumberParamUpdated(\"lossesBurnP\", newValue);\n    }\n\n    function updateMaxGnsSupplyMintDailyP(uint newValue) external onlyManager{\n        require(newValue <= MAX_GNS_SUPPLY_MINT_DAILY_P, \"ABOVE_MAX\");\n        maxGnsSupplyMintDailyP = newValue;\n        emit NumberParamUpdated(\"maxGnsSupplyMintDailyP\", newValue);\n    }\n\n    function updateMaxDiscountP(uint newValue) external onlyManager{\n        require(newValue <= MAX_DISCOUNT_P, \"ABOVE_MAX_DISCOUNT\");\n        maxDiscountP = newValue;\n        emit NumberParamUpdated(\"maxDiscountP\", newValue);\n    }\n\n    function updateMaxDiscountThresholdP(uint newValue) external onlyManager{\n        require(newValue >= 100 * PRECISION, \"BELOW_MIN\");\n        maxDiscountThresholdP = newValue;\n        emit NumberParamUpdated(\"maxDiscountThresholdP\", newValue);\n    }\n\n    // View helper functions\n    function maxAccPnlPerToken() public view returns(uint){ // PRECISION\n        return PRECISION + accRewardsPerToken;\n    }\n    \n    function collateralizationP() public view returns(uint) { // PRECISION (%)\n        uint _maxAccPnlPerToken = maxAccPnlPerToken();\n        return\n            (accPnlPerTokenUsed > 0 ?\n                (_maxAccPnlPerToken - uint(accPnlPerTokenUsed)) :\n                (_maxAccPnlPerToken + uint(accPnlPerTokenUsed * (-1)))\n            ) * 100 * PRECISION / _maxAccPnlPerToken;\n    }\n\n    function gnsTokenToAssetsPrice() public view returns(uint price) { // GNS_PRECISION\n        (bool success, bytes memory result) = gnsPriceProvider.addr.staticcall(\n            gnsPriceProvider.signature\n        );\n\n        require(success == true, \"GNS_PRICE_CALL_FAILED\");\n        (price) = abi.decode(result, (uint));\n\n        require(price > 0, \"GNS_TOKEN_PRICE_0\");\n    }\n\n    function withdrawEpochsTimelock() public view returns(uint) {\n        uint collatP = collateralizationP();\n        uint overCollatP = (collatP - MathUpgradeable.min(collatP, 100 * PRECISION));\n\n        return overCollatP > withdrawLockThresholdsP[1] ?\n            WITHDRAW_EPOCHS_LOCKS[2] :\n            overCollatP > withdrawLockThresholdsP[0] ?\n                WITHDRAW_EPOCHS_LOCKS[1] :\n                WITHDRAW_EPOCHS_LOCKS[0];\n    }\n\n    function lockDiscountP(uint collatP, uint lockDuration) public view returns(uint) {\n        return (collatP <= 100 * PRECISION ?\n                maxDiscountP :\n            collatP <= maxDiscountThresholdP ?\n                maxDiscountP\n                    * (maxDiscountThresholdP - collatP)\n                    / (maxDiscountThresholdP - 100 * PRECISION)\n            : 0) * lockDuration / MAX_LOCK_DURATION;\n    }\n\n    function totalSharesBeingWithdrawn(address owner) public view returns(uint shares){\n        for(uint i = currentEpoch; i <= currentEpoch + WITHDRAW_EPOCHS_LOCKS[0]; i++){\n            shares += withdrawRequests[owner][i];\n        }\n    }\n\n    // Public helper functions\n    function tryUpdateCurrentMaxSupply() public {\n        if(block.timestamp - lastMaxSupplyUpdate >= 24 hours) {\n            currentMaxSupply = totalSupply()\n                * (PRECISION * 100 + maxSupplyIncreaseDailyP)\n                / (PRECISION * 100);\n            lastMaxSupplyUpdate = block.timestamp;\n\n            emit CurrentMaxSupplyUpdated(currentMaxSupply);\n        }\n    }\n\n    function tryResetDailyAccPnlDelta() public {\n        if(block.timestamp - lastDailyAccPnlDeltaReset >= 24 hours) {\n            dailyAccPnlDelta = 0;\n            lastDailyAccPnlDeltaReset = block.timestamp;\n\n            emit DailyAccPnlDeltaReset();\n        }\n    }\n\n    function tryNewOpenPnlRequestOrEpoch() public {\n        // Fault tolerance so that activity can continue anyway\n        (bool success, ) = address(openTradesPnlFeed).call(\n            abi.encodeWithSignature(\"newOpenPnlRequestOrEpoch()\")\n        );\n        if(!success) {\n            emit OpenTradesPnlFeedCallFailed();\n        }\n    }\n\n    // Private helper functions\n    function updateShareToAssetsPrice() private { // PRECISION\n        shareToAssetsPrice = maxAccPnlPerToken() - (\n            accPnlPerTokenUsed > 0 ?\n                uint(accPnlPerTokenUsed) :\n                uint(0)\n        );\n\n        emit ShareToAssetsPriceUpdated(shareToAssetsPrice);\n    }\n\n    function _assetIERC20() private view returns(IERC20Upgradeable){\n        return IERC20Upgradeable(asset());\n    } \n\n    // Override ERC-20 functions (prevent sending to address that is withdrawing)\n    function transfer(\n        address to,\n        uint amount\n    ) public override(ERC20Upgradeable, IERC20Upgradeable) returns (bool) {\n        address sender = _msgSender();\n        require(totalSharesBeingWithdrawn(sender) <= balanceOf(sender) - amount, \"PENDING_WITHDRAWAL\");\n        _transfer(sender, to, amount);\n        return true;\n    }\n\n    function transferFrom(\n        address from,\n        address to,\n        uint amount\n    ) public override(ERC20Upgradeable, IERC20Upgradeable) returns (bool) {\n        require(totalSharesBeingWithdrawn(from) <= balanceOf(from) - amount, \"PENDING_WITHDRAWAL\");\n        _spendAllowance(from, _msgSender(), amount);\n        _transfer(from, to, amount);\n        return true;\n    }\n\n    // Override ERC-4626 view functions\n    function decimals() public view override(ERC20Upgradeable, ERC4626Upgradeable) returns (uint8) {\n        return ERC4626Upgradeable.decimals();\n    }\n\n    function _convertToShares(\n        uint assets,\n        MathUpgradeable.Rounding rounding\n    ) internal view override returns (uint shares) {\n        return assets.mulDiv(PRECISION, shareToAssetsPrice, rounding);\n    }\n\n    function _convertToAssets(\n        uint shares,\n        MathUpgradeable.Rounding rounding\n    ) internal view override returns (uint assets) {\n        // Prevent overflow when called from maxDeposit with maxMint = uint.max\n        if (shares == type(uint).max && shareToAssetsPrice >= PRECISION) {\n            return shares;\n        }\n        return shares.mulDiv(shareToAssetsPrice, PRECISION, rounding);\n    }\n\n    function maxMint(address) public view override returns (uint) {\n        return accPnlPerTokenUsed > 0 ?\n            currentMaxSupply - MathUpgradeable.min(currentMaxSupply, totalSupply()) :\n            type(uint).max;\n    }\n\n    function maxDeposit(address owner) public view override returns (uint) {\n        return _convertToAssets(maxMint(owner), MathUpgradeable.Rounding.Down);\n    }\n\n    function maxRedeem(address owner) public view override returns (uint) {\n        return openTradesPnlFeed.nextEpochValuesRequestCount() == 0 ?\n            MathUpgradeable.min(\n                withdrawRequests[owner][currentEpoch],\n                totalSupply() - 1\n            ) : 0;\n    }\n\n    function maxWithdraw(address owner) public view override returns (uint) {\n        return _convertToAssets(maxRedeem(owner), MathUpgradeable.Rounding.Down);\n    }\n\n    // Override ERC-4626 interactions (call scaleVariables on every deposit / withdrawal)\n    function deposit(\n        uint assets,\n        address receiver\n    ) public override checks(assets) returns (uint) {\n        require(assets <= maxDeposit(receiver), \"ERC4626: deposit more than max\");\n\n        uint shares = previewDeposit(assets);\n        scaleVariables(shares, assets, true);\n\n        _deposit(_msgSender(), receiver, assets, shares);\n        return shares;\n    }\n\n    function mint(\n        uint shares,\n        address receiver\n    ) public override checks(shares) returns (uint) {\n        require(shares <= maxMint(receiver), \"ERC4626: mint more than max\");\n\n        uint assets = previewMint(shares);\n        scaleVariables(shares, assets, true);\n\n        _deposit(_msgSender(), receiver, assets, shares);\n        return assets;\n    }\n\n    function withdraw(\n        uint assets,\n        address receiver,\n        address owner\n    ) public override checks(assets) returns (uint) {\n        require(assets <= maxWithdraw(owner), \"ERC4626: withdraw more than max\");\n\n        uint shares = previewWithdraw(assets);\n        withdrawRequests[owner][currentEpoch] -= shares;\n\n        scaleVariables(shares, assets, false);\n\n        _withdraw(_msgSender(), receiver, owner, assets, shares);\n        return shares;\n    }\n\n    function redeem(\n        uint shares,\n        address receiver,\n        address owner\n    ) public override checks(shares) returns (uint) {\n        require(shares <= maxRedeem(owner), \"ERC4626: redeem more than max\");\n        \n        withdrawRequests[owner][currentEpoch] -= shares;\n\n        uint assets = previewRedeem(shares);\n        scaleVariables(shares, assets, false);\n\n        _withdraw(_msgSender(), receiver, owner, assets, shares);\n        return assets;\n    }\n\n    function scaleVariables(uint shares, uint assets, bool isDeposit) private {\n        uint supply = totalSupply();\n        \n        if(accPnlPerToken < 0) {\n            accPnlPerToken = accPnlPerToken\n                * int(supply)\n                / (isDeposit ?\n                    int(supply + shares) :\n                    int(supply - shares)\n                );\n        \n        }else if(accPnlPerToken > 0) {\n            totalLiability += int(shares)\n                * totalLiability\n                / int(supply)\n                * (isDeposit ? int(1) : int(-1));\n        }\n\n        totalDeposited = isDeposit ?\n            totalDeposited + assets :\n            totalDeposited - assets;\n    }\n\n    // Withdraw requests (need to be done before calling 'withdraw' / 'redeem')\n    function makeWithdrawRequest(uint shares, address owner) external {\n        require(openTradesPnlFeed.nextEpochValuesRequestCount() == 0, \"END_OF_EPOCH\");\n\n        address sender = _msgSender();\n        uint allowance = allowance(owner, sender);\n        require(sender == owner || allowance > 0 && allowance >= shares, \"NOT_ALLOWED\");\n\n        require(totalSharesBeingWithdrawn(owner) + shares <= balanceOf(owner), \"MORE_THAN_BALANCE\");\n\n        uint unlockEpoch = currentEpoch + withdrawEpochsTimelock();\n        withdrawRequests[owner][unlockEpoch] += shares;\n\n        emit WithdrawRequested(sender, owner, shares, currentEpoch, unlockEpoch);\n    }\n\n    function cancelWithdrawRequest(uint shares, address owner, uint unlockEpoch) external {\n        require(shares <= withdrawRequests[owner][unlockEpoch], \"MORE_THAN_WITHDRAW_AMOUNT\");\n\n        address sender = _msgSender();\n        uint allowance = allowance(owner, sender);\n        require(sender == owner || allowance > 0 && allowance >= shares, \"NOT_ALLOWED\");\n\n        withdrawRequests[owner][unlockEpoch] -= shares;\n\n        emit WithdrawCanceled(sender, owner, shares, currentEpoch, unlockEpoch);\n    }\n\n    // Locked and discounted deposits\n    function depositWithDiscountAndLock(\n        uint assets,\n        uint lockDuration,\n        address receiver\n    ) external checks(assets) validDiscount(lockDuration) returns (uint) {\n        uint simulatedAssets = assets\n            * (PRECISION * 100 + lockDiscountP(collateralizationP(), lockDuration))\n            / (PRECISION * 100);\n\n        require(simulatedAssets <= maxDeposit(receiver), \"DEPOSIT_MORE_THAN_MAX\");\n\n        return _executeDiscountAndLock(\n            simulatedAssets,\n            assets,\n            previewDeposit(simulatedAssets),\n            lockDuration,\n            receiver\n        );\n    }\n\n    function mintWithDiscountAndLock(\n        uint shares,\n        uint lockDuration,\n        address receiver\n    ) external checks(shares) validDiscount(lockDuration) returns (uint) {\n        require(shares <= maxMint(receiver), \"MINT_MORE_THAN_MAX\");\n        uint assets = previewMint(shares);\n\n        return _executeDiscountAndLock(\n            assets,\n            assets\n                * (PRECISION * 100)\n                / (PRECISION * 100 + lockDiscountP(collateralizationP(), lockDuration)),\n            shares,\n            lockDuration,\n            receiver\n        );\n    }\n\n    function _executeDiscountAndLock(\n        uint assets,\n        uint assetsDeposited,\n        uint shares,\n        uint lockDuration,\n        address receiver\n    ) private returns (uint) {\n        require(assets > assetsDeposited, \"NO_DISCOUNT\");\n\n        uint depositId = ++lockedDepositsCount;\n        uint assetsDiscount = assets - assetsDeposited;\n\n        LockedDeposit storage d = lockedDeposits[depositId];\n        d.owner = receiver;\n        d.shares = shares;\n        d.assetsDeposited = assetsDeposited;\n        d.assetsDiscount = assetsDiscount;\n        d.atTimestamp = block.timestamp;\n        d.lockDuration = lockDuration;\n\n        scaleVariables(shares, assetsDeposited, true);\n        address sender = _msgSender();\n        _deposit(sender, address(this), assetsDeposited, shares);\n        \n        totalDiscounts += assetsDiscount;\n        totalLockedDiscounts += assetsDiscount;\n\n        lockedDepositNft.mint(receiver, depositId);\n\n        emit DepositLocked(sender, d.owner, depositId, d);\n        return depositId;\n    }\n\n    function unlockDeposit(uint depositId, address receiver) external {\n        LockedDeposit storage d = lockedDeposits[depositId];\n\n        address sender = _msgSender();\n        address owner = lockedDepositNft.ownerOf(depositId);\n\n        require(owner == sender\n            || lockedDepositNft.getApproved(depositId) == sender\n            || lockedDepositNft.isApprovedForAll(owner, sender), \"NOT_ALLOWED\");\n        require(block.timestamp >= d.atTimestamp + d.lockDuration, \"NOT_UNLOCKED\");\n\n        int accPnlDelta = int(d.assetsDiscount.mulDiv(\n            PRECISION,\n            totalSupply(),\n            MathUpgradeable.Rounding.Up\n        ));\n\n        accPnlPerToken += accPnlDelta;\n        require(accPnlPerToken <= int(maxAccPnlPerToken()), \"NOT_ENOUGH_ASSETS\");\n\n        lockedDepositNft.burn(depositId);\n\n        accPnlPerTokenUsed += accPnlDelta;\n        updateShareToAssetsPrice();\n\n        totalLiability += int(d.assetsDiscount);\n        totalLockedDiscounts -= d.assetsDiscount;\n\n        _transfer(address(this), receiver, d.shares);\n\n        emit DepositUnlocked(sender, receiver, owner, depositId, d);\n    }\n\n    // Distributes a reward evenly to all stakers of the vault\n    function distributeReward(uint assets) external {\n        address sender = _msgSender();\n        SafeERC20Upgradeable.safeTransferFrom(_assetIERC20(), sender, address(this), assets);\n        \n        accRewardsPerToken += assets * PRECISION / totalSupply();\n        updateShareToAssetsPrice();\n\n        totalRewards += assets;\n        emit RewardDistributed(sender, assets);\n    }\n\n    // PnL interactions (happens often, so also used to trigger other actions)\n    function sendAssets(uint assets, address receiver) external {\n        address sender = _msgSender();\n        require(sender == pnlHandler, \"ONLY_TRADING_PNL_HANDLER\");\n\n        int accPnlDelta = int(assets.mulDiv(\n            PRECISION,\n            totalSupply(),\n            MathUpgradeable.Rounding.Up\n        ));\n\n        accPnlPerToken += accPnlDelta;\n        require(accPnlPerToken <= int(maxAccPnlPerToken()), \"NOT_ENOUGH_ASSETS\");\n\n        tryResetDailyAccPnlDelta();\n        dailyAccPnlDelta += accPnlDelta;\n        require(dailyAccPnlDelta <= int(maxDailyAccPnlDelta), \"MAX_DAILY_PNL\");\n\n        totalLiability += int(assets);\n        totalClosedPnl += int(assets);\n\n        tryNewOpenPnlRequestOrEpoch();\n        tryUpdateCurrentMaxSupply();\n\n        SafeERC20Upgradeable.safeTransfer(_assetIERC20(), receiver, assets);\n\n        emit AssetsSent(sender, receiver, assets);\n    }\n\n    function receiveAssets(uint assets, address user) external {    \n        address sender = _msgSender();\n        SafeERC20Upgradeable.safeTransferFrom(_assetIERC20(), sender, address(this), assets);\n\n        uint assetsLessDeplete = assets;\n\n        if(accPnlPerTokenUsed < 0 && accPnlPerToken < 0) {\n            uint depleteAmount = assets * lossesBurnP / PRECISION / 100;\n            assetsToDeplete += depleteAmount;\n            assetsLessDeplete -= depleteAmount;\n        }\n\n        int accPnlDelta = int(assetsLessDeplete * PRECISION / totalSupply());\n        accPnlPerToken -= accPnlDelta;\n\n        tryResetDailyAccPnlDelta();\n        dailyAccPnlDelta -= accPnlDelta;\n\n        totalLiability -= int(assetsLessDeplete);\n        totalClosedPnl -= int(assetsLessDeplete);\n\n        tryNewOpenPnlRequestOrEpoch();\n        tryUpdateCurrentMaxSupply();\n\n        emit AssetsReceived(sender, user, assets, assetsLessDeplete);\n    }\n\n    // GNS mint / burn mechanism\n    function deplete(uint assets) external {\n        require(assets <= assetsToDeplete, \"AMOUNT_TOO_BIG\");\n        assetsToDeplete -= assets;\n        \n        uint amountGns = assets.mulDiv(\n            GNS_PRECISION,\n            gnsTokenToAssetsPrice(),\n            MathUpgradeable.Rounding.Up\n        );\n\n        address sender = _msgSender();\n        IGnsToken(gnsToken).burn(sender, amountGns);\n\n        totalDepleted += assets;\n        totalDepletedGns += amountGns;\n\n        SafeERC20Upgradeable.safeTransfer(_assetIERC20(), sender, assets);\n\n        emit Depleted(sender, assets, amountGns);\n    }\n\n    function refill(uint assets) external {\n        require(accPnlPerTokenUsed > 0, \"NOT_UNDER_COLLATERALIZED\");\n        \n        uint supply = totalSupply();\n        require(assets <= uint(accPnlPerTokenUsed) * supply / PRECISION, \"AMOUNT_TOO_BIG\");\n        \n        if(block.timestamp - lastDailyMintedGnsReset >= 24 hours) {\n            dailyMintedGns = 0;\n            lastDailyMintedGnsReset = block.timestamp;\n        }\n\n        uint amountGns = assets * GNS_PRECISION / gnsTokenToAssetsPrice();\n        dailyMintedGns += amountGns;\n        \n        require(dailyMintedGns <= maxGnsSupplyMintDailyP\n            * IERC20Upgradeable(gnsToken).totalSupply() / PRECISION / 100, \"ABOVE_INFLATION_LIMIT\");\n\n        address sender = _msgSender();\n        SafeERC20Upgradeable.safeTransferFrom(_assetIERC20(), sender, address(this), assets);\n\n        int accPnlDelta = int(assets * PRECISION / supply);\n        accPnlPerToken -= accPnlDelta;\n        accPnlPerTokenUsed -= accPnlDelta;\n        updateShareToAssetsPrice();\n        \n        totalRefilled += assets;\n        totalRefilledGns += amountGns;\n\n        IGnsToken(gnsToken).mint(sender, amountGns);\n\n        emit Refilled(sender, assets, amountGns);\n    }\n\n    // Updates shareToAssetsPrice based on the new PnL and starts a new epoch\n    function updateAccPnlPerTokenUsed(\n        uint prevPositiveOpenPnl, // 1e18\n        uint newPositiveOpenPnl   // 1e18\n    ) external returns(uint) {\n        address sender = _msgSender();\n        require(sender == address(openTradesPnlFeed), \"ONLY_PNL_FEED\");\n\n        int delta = int(newPositiveOpenPnl) - int(prevPositiveOpenPnl); // 1e18\n        uint supply = totalSupply();\n        \n        int maxDelta = int(MathUpgradeable.min(\n            uint(int(maxAccPnlPerToken()) - accPnlPerToken) * supply / PRECISION,\n            maxAccOpenPnlDelta * supply / PRECISION\n        )); // 1e18\n        \n        delta = delta > maxDelta ? maxDelta : delta;\n\n        accPnlPerToken += delta * int(PRECISION) / int(supply);\n        totalLiability += delta;\n\n        accPnlPerTokenUsed = accPnlPerToken;\n        updateShareToAssetsPrice();\n\n        currentEpoch ++;\n        currentEpochStart = block.timestamp;\n        currentEpochPositiveOpenPnl = uint(int(prevPositiveOpenPnl) + delta);\n\n        tryUpdateCurrentMaxSupply();\n\n        emit AccPnlPerTokenUsedUpdated(\n            sender,\n            currentEpoch,\n            prevPositiveOpenPnl,\n            newPositiveOpenPnl,\n            currentEpochPositiveOpenPnl,\n            accPnlPerTokenUsed\n        );\n\n        return currentEpochPositiveOpenPnl;\n    }\n\n    // Getters\n    function getLockedDeposit(uint depositId) external view returns(LockedDeposit memory){\n        return lockedDeposits[depositId];\n    }\n\n    function tvl() public view returns(uint){ // 1e18\n        return maxAccPnlPerToken() * totalSupply() / PRECISION;\n    }\n\n    function availableAssets() public view returns(uint){ // 1e18\n        return uint(int(maxAccPnlPerToken()) - accPnlPerTokenUsed) * totalSupply() / PRECISION;\n    }\n\n    // To be compatible with old pairs storage contract v6 (to be used only with gDAI vault)\n    function currentBalanceDai() external view returns(uint){ // 1e18\n        return availableAssets();\n    }\n}",
  "sourcePath": "/Users/ntonani/workplace/trinzy/gains/arbitrum-v6.3/contracts/v6.3/GToken.sol",
  "compiler": {
    "name": "solc",
    "version": "0.8.17+commit.8df45f5f.Emscripten.clang"
  },
  "schemaVersion": "3.4.11",
  "updatedAt": "2023-01-02T17:31:30.998Z",
  "devdoc": {
    "kind": "dev",
    "methods": {
      "allowance(address,address)": {
        "details": "See {IERC20-allowance}."
      },
      "approve(address,uint256)": {
        "details": "See {IERC20-approve}. NOTE: If `amount` is the maximum `uint256`, the allowance is not updated on `transferFrom`. This is semantically equivalent to an infinite approval. Requirements: - `spender` cannot be the zero address."
      },
      "asset()": {
        "details": "See {IERC4626-asset}. "
      },
      "balanceOf(address)": {
        "details": "See {IERC20-balanceOf}."
      },
      "convertToAssets(uint256)": {
        "details": "See {IERC4626-convertToAssets}. "
      },
      "convertToShares(uint256)": {
        "details": "See {IERC4626-convertToShares}. "
      },
      "decreaseAllowance(address,uint256)": {
        "details": "Atomically decreases the allowance granted to `spender` by the caller. This is an alternative to {approve} that can be used as a mitigation for problems described in {IERC20-approve}. Emits an {Approval} event indicating the updated allowance. Requirements: - `spender` cannot be the zero address. - `spender` must have allowance for the caller of at least `subtractedValue`."
      },
      "deposit(uint256,address)": {
        "details": "See {IERC4626-deposit}. "
      },
      "increaseAllowance(address,uint256)": {
        "details": "Atomically increases the allowance granted to `spender` by the caller. This is an alternative to {approve} that can be used as a mitigation for problems described in {IERC20-approve}. Emits an {Approval} event indicating the updated allowance. Requirements: - `spender` cannot be the zero address."
      },
      "maxMint(address)": {
        "details": "See {IERC4626-maxMint}. "
      },
      "maxRedeem(address)": {
        "details": "See {IERC4626-maxRedeem}. "
      },
      "maxWithdraw(address)": {
        "details": "See {IERC4626-maxWithdraw}. "
      },
      "mint(uint256,address)": {
        "details": "See {IERC4626-mint}. "
      },
      "name()": {
        "details": "Returns the name of the token."
      },
      "owner()": {
        "details": "Returns the address of the current owner."
      },
      "previewDeposit(uint256)": {
        "details": "See {IERC4626-previewDeposit}. "
      },
      "previewMint(uint256)": {
        "details": "See {IERC4626-previewMint}. "
      },
      "previewRedeem(uint256)": {
        "details": "See {IERC4626-previewRedeem}. "
      },
      "previewWithdraw(uint256)": {
        "details": "See {IERC4626-previewWithdraw}. "
      },
      "redeem(uint256,address,address)": {
        "details": "See {IERC4626-redeem}. "
      },
      "renounceOwnership()": {
        "details": "Leaves the contract without owner. It will not be possible to call `onlyOwner` functions anymore. Can only be called by the current owner. NOTE: Renouncing ownership will leave the contract without an owner, thereby removing any functionality that is only available to the owner."
      },
      "symbol()": {
        "details": "Returns the symbol of the token, usually a shorter version of the name."
      },
      "totalAssets()": {
        "details": "See {IERC4626-totalAssets}. "
      },
      "totalSupply()": {
        "details": "See {IERC20-totalSupply}."
      },
      "transferOwnership(address)": {
        "details": "Transfers ownership of the contract to a new account (`newOwner`). Can only be called by the current owner."
      },
      "withdraw(uint256,address,address)": {
        "details": "See {IERC4626-withdraw}. "
      }
    },
    "version": 1
  },
  "userdoc": {
    "kind": "user",
    "methods": {},
    "version": 1
  }
}